:100000000C9462000C948A000C948A000C948A0070
:100010000C948A000C948A000C948A000C948A0038
:100020000C948A000C948A000C948A000C948A0028
:100030000C948A000C948A000C948A000C948A0018
:100040000C9404070C948A000C9474070C944E07CB
:100050000C948A000C948A000C948A000C948A00F8
:100060000C94A6070C948A000000000024002700CE
:100070002A0000000000250028002B0000000000DE
:1000800023002600290004040404040404040202DA
:100090000202020203030303030301020408102007
:1000A0004080010204081020010204081020000012
:1000B0000008000201000003040700000000000027
:1000C0000000C50811241FBECFEFD8E0DEBFCDBFB2
:1000D00011E0A0E0B1E0E0E0F1E202C005900D9295
:1000E000A83DB107D9F724E0A8EDB1E001C01D9209
:1000F000AD30B207E1F710E0C2E6D0E004C02197CE
:10010000FE010E946910C136D107C9F70E94790922
:100110000C947E100C9400009091E802E92FF0E01E
:10012000E855FD4F880F880F880F680F60839F5F29
:100130009093E802089522E031E098E080E0A90180
:100140004C5F5F4FF901619161118F5FE417F50713
:10015000D1F79150285F3F4F9111F1CF089530E0D2
:1001600020E080E0F901EA5FFE4FA901465F5E4FA3
:10017000919191118F5FE417F507D1F7285F3F4FF9
:100180002034310579F7089596E0899FD001112434
:10019000A256BC4F90967C936E935F9791E0919698
:1001A0009C939197E0910B04F0910C0490910A04B8
:1001B000992339F0309751F0811108C08091BA032A
:1001C0000994309719F05C968C91FACF0895CF92EC
:1001D000DF92EF92FF920F931F9396E0899FF001B9
:1001E0001124E256FC4F11A2278D30A12130310598
:1001F00051F178F02230310509F451C02330310536
:1002000009F452C01F910F91FF90EF90DF90CF90B3
:1002100008956623B9F361E070E00E94C4002FB72F
:10022000F8948091A4029091A502A091A602B091A9
:10023000A7022FBF8093F6039093F703A093F803D0
:10024000B093F903DFCF9FB7F894C090A402D09089
:10025000A502E090A602F090A7029FBF0091F603CE
:100260001091F7032091F8033091F903C01AD10AD5
:10027000E20AF30A009108041091090430E020E03A
:100280000C151D052E053F0550F462E070E01F912E
:100290000F91FF90EF90DF90CF900C94C40061110C
:1002A000B1CF63E070E0F3CF70E060E0F0CF833077
:1002B00081F028F4813099F08230A9F008958730D8
:1002C000A9F08830C9F08430B1F4809180008F7D2E
:1002D00003C0809180008F7780938000089584B55B
:1002E0008F7784BD089584B58F7DFBCF8091B0005A
:1002F0008F778093B00008958091B0008F7DF9CF03
:10030000CF93DF93282F30E0F901E255FF4F84911E
:10031000F901E656FF4FD491F901EA57FF4FC49116
:10032000CC23A1F081110E945701EC2FF0E0EE0FD9
:10033000FF1FE458FF4FA591B491EC91ED2381E0AC
:1003400090E009F480E0DF91CF91089580E090E0A3
:10035000FACF1F93CF93DF93282F30E0F901E255B6
:10036000FF4F8491F901E656FF4FD491F901EA5706
:10037000FF4FC491CC23A9F0162F81110E94570181
:10038000EC2FF0E0EE0FFF1FEE58FF4FA591B49158
:100390008FB7F894EC91111108C0D095DE23DC934F
:1003A0008FBFDF91CF911F910895DE2BF8CFCF93B0
:1003B000DF9390E0FC01E656FF4F24918A579F4F50
:1003C000FC0184918823C9F090E0880F991FFC01FB
:1003D000E859FF4FA591B491FC01EE58FF4FC5912C
:1003E000D49161110DC09FB7F8948C912095822310
:1003F0008C938881282328839FBFDF91CF91089514
:10040000623051F49FB7F8943C91822F80958323FA
:100410008C93E8812E2BEFCF8FB7F894EC912E2B95
:100420002C938FBFEACF3FB7F8948091A0029091B0
:10043000A102A091A202B091A30226B5A89B05C07B
:100440002F3F19F00196A11DB11D3FBFBA2FA92F53
:10045000982F8827BC01CD01620F711D811D911D50
:1004600042E0660F771F881F991F4A95D1F70895BC
:100470008F929F92AF92BF92CF92DF92EF92FF92B4
:100480004B015C010E9413026B017C010E9413026C
:100490006C197D098E099F09683E7340810591059D
:1004A000A8F321E0821A9108A108B10888EEC80ECD
:1004B00083E0D81EE11CF11C81149104A104B10455
:1004C00029F7FF90EF90DF90CF90BF90AF909F9073
:1004D0008F900895862F642F0C94D701862F642F58
:1004E0000C94A901862F0C94800108950895AF9271
:1004F000BF92CF92DF92EF92FF920F931F93CF9311
:10050000DF936C017B018B01040F151FEB015E0172
:10051000AE18BF08C017D10759F06991D601ED9107
:10052000FC910190F081E02DC6010995892B79F7A6
:10053000C501DF91CF911F910F91FF90EF90DF9058
:10054000CF90BF90AF900895FC01538D448D252F1F
:1005500030E0842F90E0821B930B541710F0CF965D
:10056000089501970895FC01918D828D981761F08F
:10057000A28DAE0FBF2FB11D5D968C91928D9F5FA6
:100580009F73928F90E008958FEF9FEF0895FC0185
:10059000918D828D981731F0828DE80FF11D858D38
:1005A00090E008958FEF9FEF0895FC01918D228DCB
:1005B000892F90E0805C9F4F821B91098F73992750
:1005C000089589EE92E00E94D50221E0892B09F47A
:1005D00020E0822F089580E090E0892B29F00E948E
:1005E000E10281110C9400000895FC01A48DA80F74
:1005F000B92FB11DA35ABF4F2C91848D90E0019665
:100600008F739927848FA689B7892C93A089B18984
:100610008C91837080648C93938D848D981306C025
:100620000288F389E02D80818F7D80830895EF9289
:10063000FF920F931F93CF93DF93EC0181E0888F9C
:100640009B8D8C8D98131AC0E889F989808185FF6C
:1006500015C09FB7F894EE89FF896083E889F9890E
:1006600080818370806480839FBF81E090E0DF9110
:10067000CF911F910F91FF90EF900895F62E0B8D63
:1006800010E00F5F1F4F0F731127E02E8C8D8E111E
:100690000CC00FB607FCFACFE889F989808185FF85
:1006A000F5CFCE010E94F502F1CFEB8DEC0FFD2FBF
:1006B000F11DE35AFF4FF0829FB7F8940B8FEA8940
:1006C000FB8980818062CFCFCF93DF93EC01888D4F
:1006D0008823B9F0AA89BB89E889F9898C9185FDBD
:1006E00003C0808186FD0DC00FB607FCF7CF8C914B
:1006F00085FFF2CF808185FFEDCFCE010E94F5020C
:10070000E9CFDF91CF910895089520911902260F26
:100710003327331F21323105ECF420916202FC01B2
:1007200090E080E0243069F082E00895A091190201
:100730002191AC0147505E4FA40FB52FB11D2C93F2
:100740000196861798F380911902680F6093190239
:1007500080E0089581E008951092620281E0809324
:10076000610210923C0261E082E10E94A90161E015
:1007700083E10E94A901E9EBF0E080818E7F808314
:1007800080818D7F808388E48093B80085E48093A6
:10079000BC000895CF93DF9391E09093F8018823F4
:1007A000B9F0C091B800D091BA008091BC008A7BAA
:1007B0008093BC0060E082E10E94A90160E083E1D7
:1007C0000E94A9010E94AC03D093BA00C093B80064
:1007D000DF91CF9108950895E09191028091900268
:1007E000E81730F4F0E0E852FE4F808190E0089581
:1007F0008FEF9FEF089590919102809190022FEFDB
:100800003FEF981748F4E92FF0E0E852FE4F2081BF
:1008100030E09F5F90939102C9010895809190020A
:1008200090919102891B990B0895CF92DF92EF92DC
:10083000FF920F931F93CF93DF937C01CB018A012B
:1008400020916802222389F0EB016B01C40ED51EB2
:10085000CC15DD0569F06991D701ED91FC9101900E
:10086000F081E02DC7010995F3CF642F0E94850325
:10087000C801DF91CF911F910F91FF90EF90DF9012
:10088000CF900895CF93DF931F92CDB7DEB76983E2
:10089000209168022223F9F020918E02203258F034
:1008A00021E030E0FC013383228390E080E00F9070
:1008B000DF91CF91089580918F02E82FF0E0E75902
:1008C000FD4F998190838F5F80938F0280938E027A
:1008D00081E090E0ECCF61E0CE0101960E948503BB
:1008E000F7CFCF92DF92EF92FF920F931F93CF93A8
:1008F000DF93FC01C48121E020936802C093890248
:1009000010928F0210928E028385682B86E893E006
:100910000E944204D0918E02D13208F092C00E940F
:1009200013026B017C0180916202811165C082E03B
:100930008093620281E0809361028FEF8093600276
:1009400010925F02D0935E02A9E6B2E0EEE3F2E01D
:1009500080E0D81385C010923D0280913D02CC0FFB
:10096000C82BC0933D0280913C02813009F07CC0CD
:1009700010923C020E9413026B017C0180913D02A7
:100980008093BB008091640290916502A091660201
:10099000B0916702892B8A2B8B2B99F00E9413024E
:1009A0000091640210916502209166023091670205
:1009B0006C197D098E099F09061717072807390743
:1009C000E0F18091BC0083FDD9CF85EC8093BC0021
:1009D0000E9413026B017C0180916202823009F453
:1009E00045C0809160028F3F61F18091600280324A
:1009F00041F18091600225C080916402909165026E
:100A0000A0916602B0916702892B8A2B8B2B09F487
:100A10008ACF0E9413020091640210916502209116
:100A20006602309167026C197D098E099F090617CD
:100A300017072807390708F076CF809163020E94D4
:100A4000CA0310928F0210928E0210926802DF91F8
:100A5000CF911F910F91FF90EF90DF90CF9008956D
:100A60009D9191938F5F75CF85EEB0CF8091640299
:100A700090916502A0916602B0916702892B8A2B42
:100A80008B2B09F4A9CF0E941302009164021091EC
:100A9000650220916602309167026C197D098E090A
:100AA0009F09061717072807390708F095CFC5CF04
:100AB00090E080E008950F931F93CF938C01C62F91
:100AC0000E9471046C2F6460C8010E9471046C2F35
:100AD0006B7FC8010E94710483EC90E00197F1F7ED
:100AE000CF911F910F9108950F931F93CF93DF9391
:100AF0008C01D62FC42F607F642B0E945B0580E1A0
:100B0000D89FB00111246C2BC801DF91CF911F91A8
:100B10000F910C945B05CF93DF93CDB7DEB7289789
:100B20000FB6F894DEBF0FBECDBF98E0EAE5F1E066
:100B3000DE01119601900D929A95E1F790919A033A
:100B4000961708F46FEF262F30E0220F331F41E095
:100B500050E04C0F5D1F240F351FF9016081680FB5
:100B6000606840E082E993E028960FB6F894DEBF13
:100B70000FBECDBFDF91CF910C94740540E061E0D2
:100B800082E993E00E9474058BE39FE10197F1F7FE
:100B9000089541E00E94740581E090E00895FB0112
:100BA00001900020E9F73197AF01461B570BDC019C
:100BB000ED91FC910280F381E02D09948F929F9238
:100BC000AF92BF92EF92FF920F931F93CF93DF9359
:100BD000CDB7DEB7A1970FB6F894DEBF0FBECDBF7D
:100BE0007C01FA01CB0119A2223008F42AE08E011F
:100BF0000F5D1F4F822E912CB12CA12CBF01A5019E
:100C000094010E943C10F901CA016A300CF5605D44
:100C1000D8016E938D01232B242B252B79F790E09F
:100C200080E0109721F0BD01C7010E94CF05A19679
:100C30000FB6F894DEBF0FBECDBFDF91CF911F91ED
:100C40000F91FF90EF90BF90AF909F908F9008957D
:100C5000695CDECFCF92DF92EF92FF920F931F93EA
:100C6000CF93DF936B01770FEE08FF08F7FE1FC0ED
:100C7000EC01E881F9810190F081E02D6DE20995A8
:100C80008C0144275527BA014C195D096E097F096B
:100C90002AE0CE010E94DE05800F911FDF91CF91E7
:100CA0001F910F91FF90EF90DF90CF9008952AE071
:100CB000B701A601DF91CF911F910F91FF90EF90A7
:100CC000DF90CF900C94DE05482F50E070E060E09C
:100CD0002AE082E993E00C94DE05CF93DF93BC0118
:100CE00089EE92E00E94CF05EC016CE971E089EE9B
:100CF00092E00E94CF058C0F9D1FDF91CF91089548
:100D00000C94CF05CF92DF92FF920F931F93CF9356
:100D1000DF9382EC91E00E946D0606E011E088E02E
:100D2000F82EE8012497699170E089EE92E00E9424
:100D30002A0662EC71E089EE92E00E948006C017FC
:100D4000D10789F760EC71E089EE92E00E9480069D
:100D50006E0184E0C80ED11C699170E089EE92E0CA
:100D60000E942A0662EC71E089EE92E00E94800601
:100D7000CC15DD0589F78EE991E00E946D06FA94A5
:100D8000085F1F4FF110CDCFDF91CF911F910F91D1
:100D9000FF90DF90CF90089585ED8093BC00809107
:100DA000640290916502A0916602B0916702079675
:100DB000A11DB11D23E0B695A795979587952A9516
:100DC000D1F72091BC0024FD03C010926202089567
:100DD00040916402509165026091660270916702D1
:100DE000452B462B472B69F30097A105B10541F030
:100DF00025E32A95F1F700000197A109B109E1CF98
:100E0000809163020C94CA031F920F920FB60F9247
:100E100011242F933F938F939F93AF93BF93809110
:100E2000A4029091A502A091A602B091A7023091D0
:100E30009F0223E0230F2D3758F50196A11DB11D08
:100E400020939F028093A4029093A502A093A602F0
:100E5000B093A7028091A0029091A102A091A2025A
:100E6000B091A3020196A11DB11D8093A0029093A1
:100E7000A102A093A202B093A302BF91AF919F9150
:100E80008F913F912F910F900FBE0F901F9018954B
:100E900026E8230F0296A11DB11DD2CF1F920F92FB
:100EA0000FB60F9211242F933F934F935F936F933D
:100EB0007F938F939F93AF93BF93EF93FF9389EEAD
:100EC00092E00E94F502FF91EF91BF91AF919F9147
:100ED0008F917F916F915F914F913F912F910F90E3
:100EE0000FBE0F901F9018951F920F920FB60F9282
:100EF00011242F938F939F93EF93FF93E091F90227
:100F0000F091FA028081E091FF02F091000382FDEE
:100F10001BC09081809102038F5F8F732091030328
:100F2000821741F0E0910203F0E0E751FD4F958F09
:100F300080930203FF91EF919F918F912F910F90DA
:100F40000FBE0F901F9018958081F4CF1F920F92C3
:100F50000FB60F9211242F933F934F935F936F938C
:100F60007F938F939F93AF93BF93EF93FF93809162
:100F7000B900887F803609F44AC0F0F5883209F458
:100F8000A7C018F5803109F49BC0B8F4882309F490
:100F9000F9C0883009F494C0FF91EF91BF91AF91EF
:100FA0009F918F917F916F915F914F913F912F9181
:100FB0000F900FBE0F901F901895883109F488C0CC
:100FC000803251F78093600214C0803409F49DC0D0
:100FD00040F48033B9F38833F9F68093600285ECEE
:100FE000B0C0803509F485C0883509F496C08834CE
:100FF00099F60E94CC06D0CF883909F48CC038F518
:10100000883729F050F4883611F0803729F683E0CC
:101010008093620210923B0257C0883809F47BC06B
:10102000803919F0803809F0B7CF80913B028032C7
:1010300008F071C0E0913B0281E08E0F80933B028B
:101040008091BB00F0E0E55EFD4F80833DC0803BBA
:1010500039F0E0F4803A09F479C0883A09F09CCF7D
:1010600084E08093620210921A0210921902E091B9
:101070008C02F0918D0209958091190281110FC0A7
:1010800081E0809319021092F90109C0803C09F4B3
:10109000A6CF883C09F4A3CF883B09F07DCFE0912F
:1010A0001A0281E08E0F80931A02F0E0E750FE4FA3
:1010B00080818093BB0090911A028091190229C00F
:1010C00080913D028093BB0085EC8093BC0064CF8F
:1010D00090915F0280915E02981758F5E0915F024F
:1010E00081E08E0F80935F02F0E0E25CFD4F808133
:1010F000E9CFE0915F0281E08E0F80935F028091E3
:10110000BB00F0E0E25CFD4F808390915F02809134
:101110005E029817C8F285E8D8CFE0915F0281E0BF
:101120008E0F80935F028091BB00F0E0E25CFD4F88
:1011300080838091610281115CCF81E080933C02C9
:1011400084EA8093BC001092620226CF85EC8093E3
:10115000BC001092620280913B02803230F4E09138
:101160003B02F0E0E55EFD4F108260913B0270E0D3
:10117000E0918A02F0918B028BE192E00995109246
:101180003B020ACF1092600234CF1092EC02109210
:10119000EB0288EE93E0A0E0B0E08093ED02909344
:1011A000EE02A093EF02B093F00226E631E0309316
:1011B000EA022093E90225EC30E03093F602209316
:1011C000F50224EC30E03093F8022093F70220EC93
:1011D00030E03093FA022093F90221EC30E03093B2
:1011E000FC022093FB0222EC30E03093FE022093BD
:1011F000FD0226EC30E0309300032093FF021092B2
:10120000020310920303109204031092050310923C
:1012100089031092880380938A0390938B03A09391
:101220008C03B0938D0388E791E0909387038093BC
:1012300086031092A0031092A4031092A3031092AD
:10124000A50386E991E090939F0380939E03EAEBC8
:10125000F3E01082148213821582369683E0E63F13
:10126000F807B9F786E491E09093010480930004B5
:1012700082E491E0909303048093020484E08093DD
:101280000404809305048AE491E09093FF03809323
:10129000FE038AE090E0909307048093060484EFB5
:1012A00091E0909309048093080410920C0410922A
:1012B0000B041092FA031092FB031092FC0310929D
:1012C000FD0310920A0410929503109294038AE889
:1012D00091E0909393038093920387E28093960327
:1012E00080E180939B0382E080939C0310929D0396
:1012F0000895789484B5826084BD84B5816084BD8E
:1013000085B5826085BD85B5816085BD80916E00A3
:10131000816080936E0010928100809181008260D4
:101320008093810080918100816080938100809111
:1013300080008160809380008091B1008460809300
:10134000B1008091B00081608093B00080917A00FC
:10135000846080937A0080917A00826080937A0022
:1013600080917A00816080937A0080917A00806811
:1013700080937A001092C100E091F902F091FA0294
:1013800082E08083E091F502F091F6021082E09114
:10139000F702F091F8028FEC808310920103E09144
:1013A000FD02F091FE0286E08083E091FB02F09165
:1013B000FC02808180618083E091FB02F091FC025D
:1013C000808188608083E091FB02F091FC02808143
:1013D00080688083E091FB02F091FC0280818F7D28
:1013E00080838FE991E00E946D0610929102109225
:1013F000900210928F0210928E020E94AC0385E739
:1014000092E090938D0280938C0286E792E0909315
:101410008B0280938A021092970380919C03823002
:1014200018F098E09093970380939A0362E370E03A
:1014300080E090E00E94380260919D0382E993E091
:101440000E94710468EE73E080E090E00E94380230
:1014500060E382E993E00E945B05CBE4D6E4CE0131
:101460000197F1F760E382E993E00E945B05219721
:10147000F1F760E382E993E00E945B0583E592E087
:101480000197F1F760E282E993E00E945B056091C9
:101490009703606240E082E993E00E94740584E073
:1014A0008093980340E06CE082E993E00E94740529
:1014B0000E94BE0582E08093990340E066E082E9E5
:1014C00093E00E94740540E062E082E993E00E94AC
:1014D00074058BE39FE10197F1F788E080939D030A
:1014E00060E082E993E00E94710460E080E00E9485
:1014F0008B0564EA71E082E993E00E94800661E076
:1015000080E00E948B0564EB71E082E993E00E9429
:10151000800668EE73E080E090E00E9438020E944E
:10152000BE050E94AF00809300010E949B00809343
:10153000010160E080E00E948B0564EC71E082E9CB
:1015400093E00E948006809100010E94640660E0A2
:1015500084E00E948B0566EC71E082E993E00E94D2
:101560008006809101010E9464060E94820683ED3C
:1015700091E02C01990F66087708F6E0DF2EE4EF82
:101580002E2E3324339481E080930A048FB7F8948D
:101590004091A4025091A5026091A6027091A70209
:1015A0008FBF8091FA039091FB03A091FC03B0914F
:1015B000FD03481B590B6A0B7B0B8091060490912D
:1015C0000704B0E0A0E084179507A607B70708F066
:1015D00010C1C0E080910404C81760F4E0910004D9
:1015E000F0910104EC0FF11D62E080810E94D701AF
:1015F000CF5FF0CFC12C80910504C81608F061C000
:101600000C2D10E0E0910204F0910304E00FF11FB3
:1016100061E080810E94D701E0910204F09103040F
:10162000E00FF11F60E080810E94A90181E090E05D
:10163000A0E0B0E00C2C04C0880F991FAA1FBB1FAC
:101640000A94D2F75C017C01E094F094912C809193
:1016500004049816F8F4C92DD0E0E0910004F0914C
:101660000104EC0FFD1F80810E9480012496CC0FA5
:10167000DD1FC256DC4F892B41F4888199818A296C
:101680009B29998388839394E2CF888199818E21C5
:101690009F21F7CFE0910204F0910304E00FF11FC6
:1016A00061E080810E94A90180910204909103046D
:1016B000080F191F60E0F80180810E94D701C394D0
:1016C0009ACF6EE9E62E63E0F62EE7018F8D98A1A2
:1016D000892B31F41C8E8FEF9FEF9E8F8D8F19A277
:1016E000269693E0CA3DD90789F710E0809104045B
:1016F000181708F052C000E0A12EB12CAA0CBB1C98
:10170000F501EA55FC4F5F0120910504021708F02E
:1017100042C0F50160817181002E02C07695679507
:101720000A94E2F7129F90011124200F311DEEE977
:10173000F3E080E0458D568D2417350709F40CC37E
:101740008F5F36968A30B1F760FF23C0EEE9F3E091
:1017500090E080E0448D411117C0E091FE03F091CC
:10176000FF03E20FF31F4081D89EF001D99EF00DD8
:101770001124E256FC4F448F368F258F10A2178E0E
:1017800061E00E94E70005C0019636968A30910517
:1017900009F70F5FB9CF1F5FA9CF80E0F70191A1D3
:1017A0009111892FF6E0EF0EF11CCE15DF05B1F790
:1017B0009FB7F8944091A4025091A5026091A602AF
:1017C0007091A7029FBF4093FA035093FB0360936D
:1017D000FC037093FD03882361F08091BF0388238D
:1017E00041F08091BD039091BE03C091BA0301976F
:1017F00019F010920A04C0E080919D0290919E021F
:101800008130910509F49EC008F459C0029709F48B
:1018100095C1C33409F070C02091E802E091A8029C
:10182000A8EAB2E080E0222309F466C011969C91F8
:1018300011979D9391E0980F29138CC28093E80231
:101840008E2F869586958695E770F8E08F9FC0016C
:1018500011248E5F9E4FE80FF92FF11D81E08083E8
:101860000E9482060E94BE050E94AF008093000184
:101870000E949B008093010160E080E00E948B0544
:1018800064EC71E082E993E00E948006809100019F
:101890000E94640660E084E00E948B0566EC71E0C3
:1018A00082E993E00E948006809101010E94640613
:1018B00068EE73E080E090E00E9438021DC0CC2307
:1018C000D9F0C13431F5809101018823A9F081E07C
:1018D00080939C0210929B0281E090E090939E0284
:1018E00080939D0260E08AE00E948B0566EC71E0C7
:1018F00082E993E00E94800680E090E0892B09F461
:1019000042CE0E94E102882309F439CE0E940000F1
:1019100034CEC23409F07DCF80910001882361F379
:1019200010929C0281E080939B0281E090E0909372
:101930009E0280939D0260E08AE00E948B0564EC29
:1019400071E0D6CFCA32A9F56091970270919802E2
:101950008091990290919A02611571058105910516
:1019600079F410929E0210929D0210929C021092A5
:101970009B0260E08AE00E948B0562EC71E0B8CFC8
:101980002AE030E040E050E00E943C1020939702B3
:10199000309398024093990250939A028091960254
:1019A00081508093960261E00E948B0568EC71E0A3
:1019B0009FCFC33209F0A2C0409197025091980284
:1019C0006091990270919A02411551056105710566
:1019D00009F492CF80919C02882309F482C0E0919F
:1019E000010128EE33E0E29FC001E39F900D112436
:1019F000092E000CAA0BBB0B84179507A607B70787
:101A0000F8F48093970290939802A0939902B09370
:101A10009A0261E080E00E948B056BEC71E082E944
:101A200093E00E9480064091970250919802609145
:101A3000990270919A022AE082E993E00E94DE0501
:101A400040919702509198026091990270919A0288
:101A50002AE089EE92E00E94DE0582E090E0909319
:101A60009E0280939D020C2F0C2E000C110B005334
:101A700011090A30110508F0CCCE2091970230915F
:101A800098024091990250919A0201151105D1F5E1
:101A9000211531054105510509F4BBCEAAE0B0E09E
:101AA0000E945E106093970270939802809399024F
:101AB00090939A0261E0809196020E948B0570E0FB
:101AC00060E082E993E00E942A066FEC71E082E90F
:101AD00093E00E948006809196028F5F8093960229
:101AE00098CE80919B02882309F4AACF209100010F
:101AF000229DC001239D900D11247ACFCC2309F49F
:101B0000FBCEB1CFAAE0B0E00E945E104801012EEA
:101B1000000CAA08BB08860E971EA81EB91E80924C
:101B2000970290929802A0929902B0929A0261E074
:101B3000809196020E948B05B801C3CF80919C02D0
:101B4000882309F462C06091970270919802809195
:101B5000990290919A029B01220F331F30939502B4
:101B6000209394020E946D0F20E030E04AE754E495
:101B70000E94C50E0E94AE0E0E94370F7093930212
:101B80006093920261E089E00E948B0561ED71E053
:101B900082E993E00E948006409194025091950260
:101BA00070E060E02AE082E993E00E94DE0560E0F8
:101BB0008BE00E948B05609192027091930282E902
:101BC00093E00E942A06D0E08091920290919302C5
:101BD000D81719060CF085C080919C0202E011E034
:101BE000E12CF12C882309F45FC0F80190E080E03B
:101BF000682F2191222309F1E39420E2E2123DC0F3
:101C000010923D0163E087E021C080919B02882310
:101C100009F4B8CF6091970270919802809199026F
:101C200090919A0270939502609394020E946D0FB6
:101C300020E030E04AEF53E49BCF8823B9F0800FD7
:101C4000911FFC013197108261508F2D0E948C00F2
:101C5000F394085F1F4F88E0F812C7CF0E948206F6
:101C6000C301B2010E943802DF5FAECFF8013597A1
:101C7000108263E08FEF8F0DE9CF019684309105DC
:101C800009F0B6CFE5CF843001F1800F911FFC0140
:101C90003197108261508F2D0E948C00F394085F61
:101CA0001F4F88E0F816D1F2F801349684E090E0F6
:101CB000682F2191222339F3E39420E2E2120CC031
:101CC0001092410167E087E0E7CFF8013197108279
:101CD00067E08FEF8F0DE0CF01968830910541F7D7
:101CE000DDCF0E94BE050E94AF00809300010E94DC
:101CF0009B008093010160E080E00E948B0564EC12
:101D000071E082E993E00E948006809100010E94C8
:101D1000640660E084E00E948B0566EC71E082E975
:101D200093E00E948006809101010E946406109257
:101D30009702109298021092990210929A021092B1
:101D40009B0210929C021092960210929E02109298
:101D50009D025FCD892F6ACD617013CD0E941D1049
:101D600090F09F3748F4911116F40C94361060E00F
:101D700070E080E89FE3089526F01B16611D711D39
:101D8000811D0C94B00F0C94CB0F0E94D90E0C94B3
:101D9000EA0F0E94E30F58F00E94DC0F40F029F494
:101DA0005F3F29F00C94AA0F51110C9436100C943B
:101DB000D90F0E94FB0F68F39923B1F3552391F3D8
:101DC000951B550BBB27AA2762177307840738F0AA
:101DD0009F5F5F4F220F331F441FAA1FA9F335D007
:101DE0000E2E3AF0E0E832D091505040E695001CBB
:101DF000CAF72BD0FE2F29D0660F771F881FBB1F75
:101E0000261737074807AB07B0E809F0BB0B802D52
:101E1000BF01FF2793585F4F3AF09E3F510578F07E
:101E20000C94AA0F0C9436105F3FE4F3983ED4F361
:101E3000869577956795B795F7959F5FC9F7880F52
:101E4000911D9695879597F90895E1E0660F771FA4
:101E5000881FBB1F621773078407BA0720F0621B35
:101E6000730B840BBA0BEE1F88F7E09508950E9460
:101E70003E0F6894B1110C94361008950E9403101F
:101E800088F09F5798F0B92F9927B751B0F0E1F03B
:101E9000660F771F881F991F1AF0BA95C9F714C0EB
:101EA000B13091F00E943510B1E008950C943510D6
:101EB000672F782F8827B85F39F0B93FCCF3869524
:101EC00077956795B395D9F73EF490958095709581
:101ED00061957F4F8F4F9F4F0895E89409C097FBFE
:101EE0003EF490958095709561957F4F8F4F9F4FF1
:101EF0009923A9F0F92F96E9BB279395F695879535
:101F000077956795B795F111F8CFFAF4BB0F11F4F7
:101F100060FF1BC06F5F7F4F8F4F9F4F16C088239E
:101F200011F096E911C0772321F09EE8872F762FD4
:101F300005C0662371F096E8862F70E060E02AF015
:101F40009A95660F771F881FDAF7880F9695879501
:101F500097F9089597F99F6780E870E060E0089529
:101F6000882371F4772321F09850872B762F07C0B0
:101F7000662311F499270DC09051862B70E060E024
:101F80002AF09A95660F771F881FDAF7880F9695C3
:101F9000879597F908959F3F31F0915020F48795E8
:101FA00077956795B795880F911D9695879597F9C1
:101FB00008959FEF80EC089500240A9416161706E2
:101FC00018060906089500240A941216130614062A
:101FD00005060895092E0394000C11F4882352F08D
:101FE000BB0F40F4BF2B11F460FF04C06F5F7F4F45
:101FF0008F4F9F4F089557FD9058440F551F59F02C
:102000005F3F71F04795880F97FB991F61F09F3FE5
:1020100079F087950895121613061406551FF2CF0E
:102020004695F1DF08C0161617061806991FF1CF5E
:10203000869571056105089408950E940310A0F02B
:10204000BEE7B91788F4BB279F3860F41616B11D98
:10205000672F782F8827985FF7CF869577956795B4
:10206000B11D93959639C8F30895E894BB27662768
:102070007727CB0197F90895A1E21A2EAA1BBB1B63
:10208000FD010DC0AA1FBB1FEE1FFF1FA217B30744
:10209000E407F50720F0A21BB30BE40BF50B661F5A
:1020A000771F881F991F1A9469F76095709580951E
:1020B00090959B01AC01BD01CF0108950E946F1066
:1020C000A59F900DB49F900DA49F800D911D11248C
:1020D0000895EE0FFF1F0590F491E02D0994A29F43
:1020E000B001B39FC001A39F700D811D1124911DEC
:1020F000B29F700D811D1124911D0895F894FFCF9A
:102100002020010101010101010101010101010181
:1021100001010101010101010101010101010101AF
:10212000010101010101010101010101010101019F
:10213000010101010101010101010101010101018F
:10214000010105040302090807063738394134350F
:102150003642313233432A30234400004000140019
:1021600054000000000017037702A4026403D502A4
:10217000B302C70200000000420415045805EB0337
:102180000E04FB03EC0300000000C90577025805AC
:102190008403000000006A026E0272020D0A004809
:1021A0006F6C610020205265636F6C656363696FBB
:1021B0006E20200020202020426173757261202053
:1021C00020202000520049006B20006D6178006BD8
:0821D000002400313030300022
:107E0000112484B714BE81FFF0D085E080938100F7
:107E100082E08093C00088E18093C10086E0809377
:107E2000C20080E18093C4008EE0C9D0259A86E02C
:107E300020E33CEF91E0309385002093840096BBD3
:107E4000B09BFECF1D9AA8958150A9F7CC24DD24C4
:107E500088248394B5E0AB2EA1E19A2EF3E0BF2EE7
:107E6000A2D0813461F49FD0082FAFD0023811F036
:107E7000013811F484E001C083E08DD089C08234E0
:107E800011F484E103C0853419F485E0A6D080C0E4
:107E9000853579F488D0E82EFF2485D0082F10E0AE
:107EA000102F00270E291F29000F111F8ED06801E7
:107EB0006FC0863521F484E090D080E0DECF843638
:107EC00009F040C070D06FD0082F6DD080E0C81688
:107ED00080E7D80618F4F601B7BEE895C0E0D1E017
:107EE00062D089930C17E1F7F0E0CF16F0E7DF06D8
:107EF00018F0F601B7BEE89568D007B600FCFDCFD4
:107F0000A601A0E0B1E02C9130E011968C91119780
:107F100090E0982F8827822B932B1296FA010C0160
:107F200087BEE89511244E5F5F4FF1E0A038BF0790
:107F300051F7F601A7BEE89507B600FCFDCF97BE46
:107F4000E89526C08437B1F42ED02DD0F82E2BD052
:107F50003CD0F601EF2C8F010F5F1F4F84911BD097
:107F6000EA94F801C1F70894C11CD11CFA94CF0C13
:107F7000D11C0EC0853739F428D08EE10CD085E9AC
:107F80000AD08FE07ACF813511F488E018D01DD067
:107F900080E101D065CF982F8091C00085FFFCCF94
:107FA0009093C60008958091C00087FFFCCF809118
:107FB000C00084FD01C0A8958091C6000895E0E648
:107FC000F0E098E1908380830895EDDF803219F02E
:107FD00088E0F5DFFFCF84E1DECF1F93182FE3DFCA
:107FE0001150E9F7F2DF1F91089580E0E8DFEE27F6
:047FF000FF270994CA
:027FFE00040479
:0400000300007E007B
:00000001FF
