:1000000002C1000031C100002FC100002DC100005D
:100010002BC1000029C1000027C1000025C100003C
:1000200023C1000021C100001FC100001DC100004C
:100030001BC1000019C1000017C1000015C100005C
:1000400013C1000011C100000FC100000DC100006C
:100050000BC1000009C1000007C10000E3C7000098
:1000600003C100000C9485080C945C08FDC00000DE
:10007000FBC00000F9C00000F7C00000F5C00000A0
:10008000F3C00000F1C00000EFC00000EDC00000B0
:10009000EBC00000E9C00000E7C000000C94BB0802
:1000A000E3C00000E1C00000DFC00000DDC00000D0
:1000B000DBC00000D9C00000D7C00000D5C00000E0
:1000C000D3C00000D1C00000CFC00000CDC00000F0
:1000D000CBC00000C9C00000C7C00000C5C0000000
:1000E000C3C0000000002100240027002A002D00CA
:1000F0003000330001010000040107010A01000083
:100100002200250028002B002E00310034000201BF
:100110000000050108010B0100002000230026005B
:1001200029002C002F00320000010000030106010D
:10013000090105050505070508080808020202026D
:100140000A0A080804040404010101010101010173
:100150000303030303030303040707070C0C0C0C3E
:100160000C0C0C0C02020202060606060606060627
:100170000B0B0B0B0B0B0B0B0102102020080810B4
:100180002040102040800201020108040201010207
:1001900004081020408080402010080402018004E0
:1001A000020180402010080402010804020101023B
:1001B0000408102040800102040810204080000044
:1001C0000A0B02090C0D0E080703040100000000D1
:1001D000000000000000000000000000000000001F
:1001E00000000000000000000000121110000000DC
:1001F00000000000000000000000000000000000FF
:1002000000000000DE0911241FBECFEFD1E2DEBFE7
:10021000CDBF00E00CBF12E0A0E0B2E0E6E5F3E203
:1002200000E00BBF02C007900D92A43EB107D9F7C2
:1002300025E0A4EEB2E001C01D92AA31B207E1F7B9
:1002400011E0C3E0D1E000E006C021970109802F52
:10025000FE010E948811C230D10780E00807A9F78B
:100260000E94920A0C94A911CBCE9091F503E92F2C
:10027000F0E0EB54FC4F880F880F880F680F608305
:100280009F5F9093F503089522E132E098E080E0CB
:10029000A9014C5F5F4FF901619161118F5FE41714
:1002A000F507D1F79150285F3F4F9111F1CF089595
:1002B00030E020E080E0F901EA5EFD4FA901465EF2
:1002C0005D4F919191118F5FE417F507D1F7285F8A
:1002D0003F4F2034310579F7089596E0899FD0018A
:1002E0001124A555BB4F90967C936E935F9791E038
:1002F00091969C939197E0911805F0911905909132
:100300001705992339F0309751F0811108C0809179
:10031000C7041994309719F05C968C91FACF089520
:100320008150823108F05AC0E82FF0E08827E45667
:10033000FE4F8F4F0C948811BC01C001AE01B40177
:10034000B801EE01C301C901CD01D301D701DB0121
:10035000E101E501EE01E901EF01F3018091800087
:100360008F77809380000895809180008F7DF9CFF2
:1003700080918000877FF5CF84B58F7784BD089505
:1003800084B58F7DFBCF8091B0008F778093B000D4
:1003900008958091B0008F7DF9CF809190008F7784
:1003A000809390000895809190008F7DF9CF809187
:1003B0009000877FF5CF8091A0008F778093A00079
:1003C00008958091A0008F7DF9CF8091A000877F54
:1003D000F5CF809120018F7780932001089580913F
:1003E00020018F7DF9CF80912001877FF5CFCF93BA
:1003F000DF93282F30E0F901E254FE4F8491F90198
:10040000E858FE4FD491F901EE5CFE4FC491CC2325
:1004100099F0811185DFEC2FF0E0EE0FFF1FE85E11
:10042000FE4FA591B491EC91ED2381E090E009F4A9
:1004300080E0DF91CF91089580E090E0FACF1F93A4
:10044000CF93DF93282F30E0F901E254FE4F8491DF
:10045000F901E858FE4FD491F901EE5CFE4FC491CA
:10046000CC23A1F0162F81115BDFEC2FF0E0EE0F13
:10047000FF1FE250FF4FA591B4918FB7F894EC9114
:10048000111108C0D095DE23DC938FBFDF91CF918F
:100490001F910895DE2BF8CFCF92DF92EF92FF925B
:1004A0000F931F93CF93DF93082F10E061E081112A
:1004B0002DC080910902C3DFE80183E0CC0FDD1F6E
:1004C0008A95E1F7CE5EDD4F9AE0E92E92E0F92EB3
:1004D0006E0188E0C80ED11C9991F70181917F01CE
:1004E00061E0911101C060E0AADFCC15DD05A1F744
:1004F000F801EE5FFD4F60E08081DF91CF911F91A9
:100500000F91FF90EF90DF90CF9099CFF801EF5FC0
:10051000FD4F8081D0CFCF93DF9390E0FC01E8586E
:10052000FE4F24918E5C9E4FFC0184918823C9F07C
:1005300090E0880F991FFC01EC51FF4FA591B491F9
:10054000FC01E250FF4FC591D49161110DC09FB7DE
:10055000F8948C91209582238C938881282328837A
:100560009FBFDF91CF910895623051F49FB7F89407
:100570003C91822F809583238C93E8812E2BEFCFA3
:100580008FB7F894EC912E2B2C938FBFEACF3FB707
:10059000F8948091B1039091B203A091B303B0910C
:1005A000B40326B5A89B05C02F3F19F00196A11DE5
:1005B000B11D3FBFBA2FA92F982F8827BC01CD01AD
:1005C000620F711D811D911D42E0660F771F881F0C
:1005D000991F4A95D1F708958F929F92AF92BF923B
:1005E000CF92DF92EF92FF924B015C01D0DF6B0163
:1005F0007C01CDDF6C197D098E099F09683E73402F
:1006000081059105B0F321E0821A9108A108B10893
:1006100088EEC80E83E0D81EE11CF11C8114910401
:10062000A104B10431F7FF90EF90DF90CF90BF901D
:10063000AF909F908F9008952FB7F8946091AD037D
:100640007091AE038091AF039091B0032FBF0895D6
:100650000F931F93CF93DF93C82FD62F86E0C89FA9
:10066000F0011124E555FB4F11A2878D90A1813037
:100670009105E1F058F082309105D1F1039709F42A
:100680003CC0DF91CF911F910F9108956623C9F36C
:1006900061E070E08C2F21DECFDF60930305709363
:1006A00004058093050590930605EBCFC5DF009107
:1006B0000305109104052091050530910605AB0155
:1006C000BC01401B510B620B730B8091150590917F
:1006D0001605B0E0A0E084179507A607B70740F419
:1006E00062E070E08C2FDF91CF911F910F91F5CDDB
:1006F00063E070E0D111C5CFF5CF70E060E0F2CFDC
:10070000862F642F08CF862F642F99CE862F6FCE29
:1007100008950895AF92BF92CF92DF92EF92FF9229
:100720000F931F93CF93DF936C017B018B01040F19
:10073000151FEB015E01AE18BF08C017D10759F0B5
:100740006991D601ED91FC910190F081E02DC601F7
:100750001995892B79F7C501DF91CF911F910F91E1
:10076000FF90EF90DF90CF90BF90AF900895FC0185
:10077000538D448D252F30E0842F90E0821B930B06
:10078000541710F0CF96089501970895FC01918DAC
:10079000828D981761F0A28DAE0FBF2FB11D5D96AF
:1007A0008C91928D9F5F9F73928F90E008958FEF51
:1007B0009FEF0895FC01918D828D981731F0828D05
:1007C000E80FF11D858D90E008958FEF9FEF08955C
:1007D000FC01918D228D892F90E0805C9F4F821BC0
:1007E00091098F739927089586EF93E0F1DF21E057
:1007F000892B09F420E0822F0895FC01A48DA80F15
:10080000B92FB11DA35ABF4F2C91848D90E0019652
:100810008F739927848FA689B7892C93A089B18972
:100820008C91837080648C93938D848D981306C013
:100830000288F389E02D80818F7D80830895EF9277
:10084000FF920F931F93CF93DF93EC0181E0888F8A
:100850009B8D8C8D98131AC0E889F989808185FF5A
:1008600015C09FB7F894EE89FF896083E889F989FC
:1008700080818370806480839FBF81E090E0DF91FE
:10088000CF911F910F91FF90EF900895F62E0B8D51
:1008900010E00F5F1F4F0F731127E02E8C8D8E110C
:1008A0000BC00FB607FCFACFE889F989808185FF74
:1008B000F5CFCE01A2DFF2CFEB8DEC0FFD2FF11DB6
:1008C000E35AFF4FF0829FB7F8940B8FEA89FB89B8
:1008D00080818062D0CFCF93DF93EC01888D882315
:1008E000B1F0AA89BB89E889F9898C9185FD03C09B
:1008F000808186FD0CC00FB607FCF7CF8C9185FF79
:10090000F2CF808185FFEDCFCE0177DFEACFDF9197
:10091000CF91089580E090E0892B21F065DF81116F
:100920000E94000080E090E0892B49F080E090E098
:10093000892B29F00E94000081110E94000080E0B4
:1009400090E0892B49F080E090E0892B29F00E940B
:10095000000081110E94000080E090E0892B49F0A6
:1009600080E090E0892B29F00E94000081110C9416
:1009700000000895089520912503260F3327331F83
:1009800021323105ECF420916E03FC0190E080E00F
:10099000243069F082E00895A09125032191AC01F3
:1009A0004B5F5C4FA40FB52FB11D2C93019686179A
:1009B00098F380912503680F6093250380E00895E4
:1009C00081E0089510926E0381E080936D03109290
:1009D000480361E084E133DD61E085E130DDE9EB8E
:1009E000F0E080818E7F808380818D7F808388E4AA
:1009F0008093B80085E48093BC000895CF93DF9383
:100A000091E0909304038823A1F0C091B800D091A5
:100A1000BA008091BC008A7B8093BC0060E084E1D6
:100A20000EDD60E085E10BDDCDDFD093BA00C09331
:100A3000B800DF91CF9108950895E0919D038091D2
:100A40009C03E81730F4F0E0EC51FD4F808190E01A
:100A500008958FEF9FEF089590919D0380919C03DF
:100A60002FEF3FEF981748F4E92FF0E0EC51FD4FDE
:100A7000208130E09F5F90939D03C901089580918C
:100A80009C0390919D03891B990B0895CF92DF924F
:100A9000EF92FF920F931F93CF93DF937C01CB01D3
:100AA0008A0120917403222389F0EB016B01C40EAB
:100AB000D51ECC15DD0561F06991D701ED91FC9152
:100AC0000190F081E02DC7011995F3CF642F53DF1A
:100AD000C801DF91CF911F910F91FF90EF90DF90B0
:100AE000CF900895CF93DF931F92CDB7DEB7698380
:100AF000209174032223F9F020919A03203258F0B8
:100B000021E030E0FC013383228390E080E00F900D
:100B1000DF91CF91089580919B03E82FF0E0EB588F
:100B2000FC4F998190838F5F80939B0380939A03FE
:100B300081E090E0ECCF61E0CE0101961CDFF8CFC0
:100B4000CF92DF92EF92FF920F931F93CF93DF9399
:100B5000FC01C48121E020937403C093950310929B
:100B60009B0310929A038385682B83E994E0BADF94
:100B7000D0919A03D13208F08CC009DD6B017C0161
:100B800080916E03811162C082E080936E0381E0E8
:100B900080936D038FEF80936C0310926B03D0935F
:100BA0006A03A5E7B3E0EAE4F3E080E0D81380C08D
:100BB0001092490380914903CC0FC82BC09349037D
:100BC00080914803813009F077C010924803DFDC40
:100BD0006B017C01809149038093BB00809170037D
:100BE00090917103A0917203B0917303892B8A2BAA
:100BF0008B2B91F0CCDC009170031091710320914C
:100C00007203309173036C197D098E099F090617D1
:100C1000170728073907D0F18091BC0083FDDACF90
:100C200085EC8093BC00B3DC6B017C0180916E038A
:100C3000823009F443C080916C038F3F51F1809161
:100C40006C03803231F180916C0323C0809170037A
:100C500090917103A0917203B0917303892B8A2B39
:100C60008B2B09F48DCF93DC0091700310917103ED
:100C700020917203309173036C197D098E099F09CD
:100C8000061717072807390708F07ACF80916F03F6
:100C9000B5DE10929B0310929A0310927403DF91B9
:100CA000CF911F910F91FF90EF90DF90CF9008951B
:100CB0009D9191938F5F7ACF85EEB3CF8091700332
:100CC00090917103A0917203B0917303892B8A2BC9
:100CD0008B2B09F4ABCF5BDC009170031091710397
:100CE00020917203309173036C197D098E099F095D
:100CF000061717072807390708F098CFC7CF90E0E5
:100D000080E008950F931F93CF938C01C62F18DFB7
:100D10006C2F6460C80114DF6C2F6B7FC80110DF7B
:100D200083EC90E00197F1F7CF911F910F91089517
:100D30000F931F93CF93DF938C01D62FC42F607F27
:100D4000642BE0DF80E1D89FB00111246C2BC80137
:100D5000DF91CF911F910F91D5CFCF93DF9300D02B
:100D600000D01F921F92CDB7DEB798E0EAE6F2E01E
:100D7000DE01119601900D929A95E1F79091A704EA
:100D8000961708F46FEF262F30E0220F331F41E053
:100D900050E04C0F5D1F240F351FF9016081680F73
:100DA000606840E08FE994E028960FB6F894DEBFC3
:100DB0000FBECDBFDF91CF91BBCF40E061E08FE9A7
:100DC00094E0B6DF8BE39FE10197F1F7089541E0EE
:100DD000AFDF81E090E00895FB0101900020E9F78A
:100DE0003197AF01461B570BDC01ED91FC9102805E
:100DF000F381E02D19948F929F92AF92BF92EF9260
:100E0000FF920F931F93CF93DF93CDB7DEB7A197D8
:100E10000FB6F894DEBF0FBECDBF7C01FA01CB0147
:100E200019A2223008F42AE08E010F5D1F4F822E96
:100E3000912CB12CA12CBF01A50194010E94661137
:100E4000F901CA016A3004F5605DD8016E938D0125
:100E5000232B242B252B79F790E080E0109719F0B5
:100E6000BD01C701B9DFA1960FB6F894DEBF0FBE72
:100E7000CDBFDF91CF911F910F91FF90EF90BF9069
:100E8000AF909F908F900895695CDFCFCF92DF92F3
:100E9000EF92FF920F931F93CF93DF936B01770F26
:100EA000EE08FF08F7FE1EC0EC01E881F981019011
:100EB000F081E02D6DE219958C0144275527BA0188
:100EC0004C195D096E097F092AE0CE0194DF800F7D
:100ED000911FDF91CF911F910F91FF90EF90DF90C5
:100EE000CF9008952AE0B701A601DF91CF911F911D
:100EF0000F91FF90EF90DF90CF907DCF482F50E083
:100F000070E060E02AE08FE994E075CFCF93DF9343
:100F1000BC0186EF93E060DFEC016CEA72E086EFE3
:100F200093E05ADF8C0F9D1FDF91CF91089554CF2E
:100F3000CF92DF92FF920F931F93CF93DF9382EDB7
:100F400092E0E4DF06E112E088E0F82EE801249761
:100F5000699170E086EF93E099DF62ED72E086EFD1
:100F600093E0E5DFC017D10799F760ED72E086EFF7
:100F700093E0DDDF6E0184E0C80ED11C699170E062
:100F800086EF93E083DF62ED72E086EF93E0CFDFE0
:100F9000CC15DD0599F78EEA92E0B8DFFA94085F88
:100FA0001F4FF110D3CFDF91CF911F910F91FF9081
:100FB000DF90CF90089585ED8093BC008091700301
:100FC00090917103A0917203B09173030796A11DD4
:100FD000B11D23E0B695A795979587952A95D1F7EA
:100FE0002091BC0024FD03C010926E03089540912F
:100FF0007003509171036091720370917303452BDC
:10100000462B472B69F30097A105B10541F025E375
:101010002A95F1F700000197A109B109E1CF80916C
:101020006F03ECCC1F920F920FB60F9211242F93E7
:101030003F938F939F93AF93BF938091AD03909114
:10104000AE03A091AF03B091B0033091AC0323E0A5
:10105000230F2D3758F50196A11DB11D2093AC0328
:101060008093AD039093AE03A093AF03B093B0030E
:101070008091B1039091B203A091B303B091B403F6
:101080000196A11DB11D8093B1039093B203A0936B
:10109000B303B093B403BF91AF919F918F913F91F0
:1010A0002F910F900FBE0F901F90189526E8230FD9
:1010B0000296A11DB11DD2CF1F920F920FB60F92B3
:1010C00011240BB60F922F933F934F935F936F931F
:1010D0007F938F939F93AF93BF93EF93FF9386EF8D
:1010E00093E08BDBFF91EF91BF91AF919F918F9137
:1010F0007F916F915F914F913F912F910F900BBE18
:101100000F900FBE0F901F9018951F920F920FB661
:101110000F9211240BB60F922F938F939F93EF93FF
:10112000FF93E0910604F09107048081E0910C04A4
:10113000F0910D0482FD1DC0908180910F048F5F9E
:101140008F7320911004821741F0E0910F04F0E0BA
:10115000EA50FC4F958F80930F04FF91EF919F9180
:101160008F912F910F900BBE0F900FBE0F901F907D
:1011700018958081F2CF1F920F920FB60F92112413
:101180000BB60F922F933F934F935F936F937F9381
:101190008F939F93AF93BF93EF93FF938091B90089
:1011A000887F803609F44CC008F03FC0883209F4CB
:1011B000A8C028F5803109F49CC0C8F4882309F43C
:1011C000FAC0883009F495C0FF91EF91BF91AF91BB
:1011D0009F918F917F916F915F914F913F912F914F
:1011E0000F900BBE0F900FBE0F901F901895883177
:1011F00009F487C0803241F780936C0314C08034B7
:1012000009F49CC040F48033B9F38833E9F6809345
:101210006C0385ECAFC0803509F484C0883509F4CF
:1012200095C0883489F6C7DECFCF883909F48CC0E1
:1012300038F5883729F050F4883611F0803721F6D8
:1012400083E080936E031092470357C0883809F4F7
:101250007BC0803919F0803809F0B6CF8091470300
:10126000803208F071C0E091470381E08E0F8093D7
:1012700047038091BB00F0E0E95DFC4F80833DC0F7
:10128000803B39F0E0F4803A09F479C0883A09F0FB
:101290009BCF84E080936E03109226031092250367
:1012A000E0919803F091990319958091250381119C
:1012B0000FC081E0809325031092050309C0803C94
:1012C00009F4A7CF883C09F4A4CF883B09F07CCF70
:1012D000E091260381E08E0F80932603F0E0EB5F20
:1012E000FC4F80818093BB00909126038091250361
:1012F00029C0809149038093BB0085EC8093BC009A
:1013000063CF90916B0380916A03981758F5E09131
:101310006B0381E08E0F80936B03F0E0E65BFC4F84
:101320008081E9CFE0916B0381E08E0F80936B03A6
:101330008091BB00F0E0E65BFC4F808390916B03F3
:1013400080916A039817C8F285E8D8CFE0916B03C3
:1013500081E08E0F80936B038091BB00F0E0E65B31
:10136000FC4F808380916D0381115DCF81E080937C
:10137000480384EA8093BC0010926E0325CF85EC6D
:101380008093BC0010926E0380914703803230F44A
:10139000E0914703F0E0E95DFC4F10826091470364
:1013A00070E0E0919603F091970387E293E019953E
:1013B0001092470309CF10926C0335CF1092F903B6
:1013C0001092F80388EE93E0A0E0B0E08093FA0377
:1013D0009093FB03A093FC03B093FD0326E732E058
:1013E0003093F7032093F60325EC30E030930304A9
:1013F0002093020424EC30E030930504209304048D
:1014000020EC30E0309307042093060421EC30E018
:10141000309309042093080422EC30E030930B044D
:1014200020930A0426EC30E030930D0420930C0442
:1014300010920F04109210041092110410921204D2
:1014400010929604109295048093970490939804B8
:10145000A0939904B0939A0488E892E0909394043E
:10146000809393041092AD041092B1041092B004D2
:101470001092B20486EA92E09093AC048093AB049D
:10148000E7ECF4E01082148213821582369685E030
:10149000E330F807B9F786E592E090930E05809364
:1014A0000D0582E592E09093100580930F0584E08E
:1014B00080931105809312058AE592E090930C05C4
:1014C00080930B058AE090E09093140580931305B8
:1014D00084EF91E0909316058093150510921905FD
:1014E0001092180510920705109208051092090530
:1014F00010920A05109217051092A2041092A104EE
:101500008AE992E09093A00480939F0487E28093FD
:10151000A30480E18093A80482E08093A904109240
:10152000AA040895789484B5826084BD84B58160EE
:1015300084BD85B5826085BD85B5816085BD80919E
:101540006E00816080936E00109281008091810016
:10155000826080938100809181008160809381000E
:10156000809180008160809380008091B1008460D0
:101570008093B1008091B00081608093B000809131
:1015800091008260809391008091910081608093AE
:101590009100809190008160809390008091A100E3
:1015A00082608093A1008091A10081608093A1005E
:1015B0008091A00081608093A000809121018260D1
:1015C000809321018091210181608093210180918C
:1015D000200181608093200180917A008460809353
:1015E0007A0080917A00826080937A0080917A00FC
:1015F000816080937A0080917A00806880937A007D
:101600001092C100E0910604F091070482E080830B
:10161000E0910204F09103041082E0910404F0913F
:1016200005048FEC808310920E04E0910A04F0917F
:101630000B0486E08083E0910804F0910904808126
:1016400080618083E0910804F091090480818860C2
:101650008083E0910804F091090480818068808390
:10166000E0910804F091090480818F7D80838FEAE6
:1016700092E04CDC10929D0310929C0310929B030D
:1016800010929A039FD988E893E0909399038093EE
:10169000980389E893E090939703809396031092C0
:1016A000A4048091A904823018F098E09093A404D7
:1016B0008093A70462E370E080E090E00E94EC0277
:1016C0006091AA048FE994E03BDA68EE73E080E071
:1016D00090E00E94EC0260E38FE994E013DBCBE43E
:1016E000D6E4CE010197F1F760E38FE994E00ADBDD
:1016F0002197F1F760E38FE994E004DB83E592E062
:101700000197F1F760E28FE994E0FCDA6091A404BC
:10171000606240E08FE994E00BDB84E08093A504F5
:1017200040E06CE08FE994E003DB47DB82E08093EC
:10173000A60440E066E08FE994E0FADA40E062E077
:101740008FE994E0F5DA8BE39FE10197F1F7CAE0C6
:10175000D2E002E012E061E089910E948B0261E038
:10176000F80181918F010E948B02FE01319760E0A8
:1017700080810E941F02F801319761E080810E9400
:101780001F02F2E0C231DF0731F788E08093AA043C
:1017900060E08FE994E0D4D960E080E0DEDA64EBC9
:1017A00072E08FE994E0C3DB61E080E0D6DA64ECBC
:1017B00072E08FE994E0BBDB68EE73E080E090E0DC
:1017C0000E94EC02FADA0E945801809300020E9403
:1017D00044018093010260E080E0BFDA64ED72E0D2
:1017E0008FE994E0A4DB8091000288DB60E084E074
:1017F000B4DA66ED72E08FE994E099DB8091010242
:101800007DDB96DBDD24D394EAE04E2E512C612C57
:10181000712C22242394312CC091AB038C2F0E9475
:101820004C02C73089F51092AB03D09217050E9485
:101830001C030091070510910805209109053091BE
:101840000A05AB01BC01401B510B620B730B80916D
:10185000130590911405B0E0A0E084179507A60742
:10186000B70708F00CC1C0E080911105C81780F4DB
:10187000E0910D05F0910E05EC0FF11D62E0808105
:101880000E948B02CF5FF0CFCF5FC093AB03CDCF71
:10189000C12C80911205C81608F061C00C2D10E013
:1018A000E0910F05F0911005E00FF11F61E08081DC
:1018B0000E948B02E0910F05F0911005E00FF11FDF
:1018C00060E080810E941F0281E090E0A0E0B0E033
:1018D0000C2C04C0880F991FAA1FBB1F0A94D2F7B3
:1018E0005C017C01E094F094912C80911105981694
:1018F000F8F4C92DD0E0E0910D05F0910E05EC0F44
:10190000FD1F80810E94F7012496CC0FDD1FC55575
:10191000DB4F892B41F4888199818A299B299983FE
:1019200088839394E2CF888199818E219F21F7CF7C
:10193000E0910F05F0911005E00FF11F61E080814B
:101940000E941F0280910F0590911005080F191F2A
:1019500060E0F80180810E948B02C3949ACF6BEA09
:10196000E62E64E0F62EE7018F8D98A1892B31F4E5
:101970001C8E2FEF3FEF3E8F2D8F19A2269634E05D
:10198000C73ED30789F710E080911105181708F0BA
:1019900053C000E0812F90E0880F991FFC01ED54A7
:1019A000FB4F5F0120911205021708F043C0F501BB
:1019B00060817181002E02C0769567950A94E2F7E6
:1019C000129F90011124200F311DEBEAF4E080E01A
:1019D000458D568D2417350709F4FCC28F5F369666
:1019E0008A30B1F760FF24C0EBEAF4E090E080E0D9
:1019F000448D411118C0E0910B05F0910C05E20FE8
:101A0000F31F408156E0589FF001599FF00D1124BB
:101A1000E555FB4F448F368F258F10A2178E61E05E
:101A20000E94280305C0019636968A30910501F779
:101A30000F5FB8CF1F5FA8CF10E0F70181A1811120
:101A4000182FF6E0EF0EF11CCE15DF05B1F70E945E
:101A50001C03609307057093080580930905909314
:101A60000A05112361F08091CC04882341F0809114
:101A7000CA049091CB04C091C704019719F0109249
:101A80001705C0E08091A9039091AA0381309105C8
:101A900009F495C008F463C0029709F478C1C3340F
:101AA00009F075C02091F503E091B503A5EBB3E013
:101AB00080E0222309F46BC011969C9111979D93AD
:101AC00091E0980F291380C28093F5039E2F96957D
:101AD000969596958E2F877028E0929FF00111249D
:101AE000EE5EFD4FE80FF11DD08222DA66D90E942A
:101AF0005801809300020E9444018093010260E03B
:101B000080E02BD964ED72E08FE994E010DA8091E7
:101B10000002F4D960E084E020D966ED72E08FE93C
:101B200094E005DA80910102E9D90E941C034B017F
:101B30005C010E941C03681979098A099B09683EA7
:101B400073408105910518F5C091AB038C2F0E945D
:101B50004C02C73009F03AC21092AB03EACFCC2353
:101B6000B1F0C134B9F480910102882381F0D092A0
:101B7000A8031092A7033092AA032092A90360E061
:101B80008AE0EBD866ED72E08FE994E0D0D90E944C
:101B90008A0442CEC23409F082CF809100028823A9
:101BA000B1F31092A803D092A7033092AA03209217
:101BB000A90360E08AE0D1D864ED72E0E5CFCA32D3
:101BC00081F56091A3037091A4038091A503909186
:101BD000A603611571058105910571F41092AA03A0
:101BE0001092A9031092A8031092A70360E08AE064
:101BF000B4D862ED72E0C8CFA301920167D32093FD
:101C0000A3033093A4034093A5035093A6038091AC
:101C1000A20381508093A20361E09FD868ED72E037
:101C2000B3CFC33209F094C04091A3035091A403F1
:101C30006091A5037091A6034115510561057105D9
:101C400009F4A5CF8091A80320910102E8EEF3E00A
:101C5000811108C08091A703882371F120910002AF
:101C6000E4EFF1E02E9FC0012F9F900D1124092E6B
:101C7000000CAA0BBB0B84179507A607B707E0F467
:101C80008093A3039093A403A093A503B093A6030A
:101C900061E080E062D86BED72E08FE994E047D9B3
:101CA0004091A3035091A4036091A5037091A603F2
:101CB0002AE08FE994E09FD84091A3035091A403B8
:101CC0006091A5037091A6032AE086EF93E093D874
:101CD00022E030E03093AA032093A9030C2F0C2EAE
:101CE000000C110B005311090A30110508F0D7CE72
:101CF0002091A3033091A4034091A5035091A60322
:101D00000115110549F5211531054105510509F464
:101D1000C6CEAAE0B0E004D36093A3037093A403FB
:101D20008093A5039093A60361E08091A20315D848
:101D300070E060E08FE994E0A9D86FED72E08FE980
:101D400094E0F5D88091A2038F5F8093A203A7CE81
:101D5000CC2309F41CCFC2CFAAE0B0E0E1D2480105
:101D6000012E000CAA08BB08860E971EA81EB91EDD
:101D70008092A3039092A403A092A503B092A6031D
:101D800061E08091A2030E94AD06B801D3CF80919B
:101D9000A803882309F45BC06091A3037091A40396
:101DA0008091A5039091A6039B01220F331F3093CE
:101DB000A1032093A003BCD120E030E04AE754E423
:101DC0001ED10AD184D170939F0360939E0361E07A
:101DD00089E00E94AD0661EE72E08FE994E0A7D839
:101DE0004091A0035091A10370E060E02AE08FE9E8
:101DF00094E001D860E08BE00E94AD0660919E0304
:101E000070919F038FE994E041D8D0E080919E03C8
:101E100090919F03D81719060CF09DC08091A803DC
:101E200002E112E0E12CF12C882309F471C0F801E1
:101E300090E080E0682F2191222301F1E39430E2C9
:101E4000E3124FC010924D0263E087E020C0809102
:101E5000A703882309F4BBCF6091A3037091A40367
:101E60008091A5039091A6037093A1036093A003B2
:101E70005FD120E030E04AEF53E4A2CF882351F154
:101E8000800F911FFC013197108261508F2D0E94AD
:101E90003501F394085F1F4F58E0F512C8CF48D8BA
:101EA0000E941C034B015C010E941C036819790904
:101EB0008A099B09683E73408105910508F049C075
:101EC0001091AB03812F0E944C021730F1F5109254
:101ED000AB03EACFF8013597108263E08FEF8F0DE7
:101EE000D6CF01968430910509F0A4CFD2CF8430AB
:101EF00001F1800F911FFC013197108261508F2DED
:101F00000E943501F394085F1F4F38E0F31639F251
:101F1000F801349684E090E0682F2191222339F370
:101F2000E39420E2E2120CC01092510267E087E0D5
:101F3000E7CFF8013197108267E08FEF8F0DE0CF88
:101F400001968830910541F7DDCF1F5F1093AB03F9
:101F5000ABCFDF5F5BCF0E94DD060E94580180930C
:101F600000020E9444018093010260E080E00E9430
:101F7000AD0664ED72E08FE994E00E9497078091CE
:101F800000020E947E0760E084E00E94AD0666EDDC
:101F900072E08FE994E00E949707809101020E940D
:101FA0007E071092A3031092A4031092A50310922F
:101FB000A6031092A7031092A8031092A2031092F6
:101FC000AA031092A9036BCD892F76CDCF5FC09362
:101FD000AB03AFCD617024CD5BD180F09F3740F46F
:101FE00091110EF46DC160E070E080E89FE3089508
:101FF00026F01B16611D711D811DDDC0F7C00CD0C0
:1020000014C10CD140F003D130F021F45F3F19F03E
:10201000CCC0511155C1F8C019D198F39923C9F317
:102020005523B1F3951B550BBB27AA2762177307DE
:10203000840738F09F5F5F4F220F331F441FAA1F92
:10204000A9F333D00E2E3AF0E0E830D09150504052
:10205000E695001CCAF729D0FE2F27D0660F771F00
:10206000881FBB1F261737074807AB07B0E809F0E2
:10207000BB0B802DBF01FF2793585F4F2AF09E3F77
:10208000510568F092C01CC15F3FECF3983EDCF351
:10209000869577956795B795F7959F5FC9F7880FF0
:1020A000911D9695879597F90895E1E0660F771F42
:1020B000881FBB1F621773078407BA0720F0621BD3
:1020C000730B840BBA0BEE1F88F7E095089504D0CC
:1020D0006894B111F5C00895C1D088F09F5790F071
:1020E000B92F9927B751A0F0D1F0660F771F881F3D
:1020F000991F1AF0BA95C9F712C0B13081F0DFD03C
:10210000B1E00895DCC0672F782F8827B85F39F0D9
:10211000B93FCCF3869577956795B395D9F73EF49B
:1021200090958095709561957F4F8F4F9F4F089543
:10213000E89409C097FB3EF4909580957095619561
:102140007F4F8F4F9F4F9923A9F0F92F96E9BB2717
:102150009395F695879577956795B795F111F8CF93
:10216000FAF4BB0F11F460FF1BC06F5F7F4F8F4FFE
:102170009F4F16C0882311F096E911C0772321F0F4
:102180009EE8872F762F05C0662371F096E8862F8C
:1021900070E060E02AF09A95660F771F881FDAF7E3
:1021A000880F9695879597F9089597F99F6780E826
:1021B00070E060E00895882371F4772321F098504F
:1021C000872B762F07C0662311F499270DC09051F5
:1021D000862B70E060E02AF09A95660F771F881FC3
:1021E000DAF7880F9695879597F908959F3F31F014
:1021F000915020F4879577956795B795880F911D35
:102200009695879597F908959FEF80EC089500249F
:102210000A941616170618060906089500240A944B
:1022200012161306140605060895092E0394000CD1
:1022300011F4882352F0BB0F40F4BF2B11F460FF60
:1022400004C06F5F7F4F8F4F9F4F089557FD905889
:10225000440F551F59F05F3F71F04795880F97FB6A
:10226000991F61F09F3F79F0879508951216130624
:102270001406551FF2CF4695F1DF08C01616170653
:102280001806991FF1CF8695710561050894089588
:10229000E5DFA0F0BEE7B91788F4BB279F3860F4EC
:1022A0001616B11D672F782F8827985FF7CF869570
:1022B00077956795B11D93959639C8F30895E8947D
:1022C000BB2766277727CB0197F90895A1E21A2E3D
:1022D000AA1BBB1BFD010DC0AA1FBB1FEE1FFF1FCA
:1022E000A217B307E407F50720F0A21BB30BE40B1A
:1022F000F50B661F771F881F991F1A9469F7609561
:102300007095809590959B01AC01BD01CF0108951A
:10231000EE0FFF1F881F8BBF0790F691E02D1994D9
:1023200009D0A59F900DB49F900DA49F800D911D85
:1023300011240895A29FB001B39FC001A39F700D07
:10234000811D1124911DB29F700D811D1124911DBD
:062350000895F894FFCF90
:1023560020201E1F2021222324251D1C1B1A19188C
:10236600171601010101010101010101010101012C
:102376000101010101010101010101010101010147
:102386000101010101010101010101010101010137
:102396000101010101010101010101010101010127
:1023A60001010504030209080706373839413435A7
:1023B6003642313233432A302344000040001400B1
:1023C6005400000000001F048A03B7036B04E803EF
:1023D600C603DA0300000000720546057F061C05E9
:1023E6003F052C051D0500000000E7068A037F0651
:1023F600BA04000000008003830386030D0A004828
:102406006F6C610020205265636F6C656363696F52
:102416006E202000202020204261737572612020EA
:1024260020202000520049006B20006D6178006B6F
:04243600002400007E
:020000023000CC
:10E000000D9489F10D94B2F10D94B2F10D94B2F129
:10E010000D94B2F10D94B2F10D94B2F10D94B2F1F0
:10E020000D94B2F10D94B2F10D94B2F10D94B2F1E0
:10E030000D94B2F10D94B2F10D94B2F10D94B2F1D0
:10E040000D94B2F10D94B2F10D94B2F10D94B2F1C0
:10E050000D94B2F10D94B2F10D94B2F10D94B2F1B0
:10E060000D94B2F10D94B2F10D94B2F10D94B2F1A0
:10E070000D94B2F10D94B2F10D94B2F10D94B2F190
:10E080000D94B2F10D94B2F10D94B2F10D94B2F180
:10E090000D94B2F10D94B2F10D94B2F10D94B2F170
:10E0A0000D94B2F10D94B2F10D94B2F10D94B2F160
:10E0B0000D94B2F10D94B2F10D94B2F10D94B2F150
:10E0C0000D94B2F10D94B2F10D94B2F10D94B2F140
:10E0D0000D94B2F10D94B2F10D94B2F10D94B2F130
:10E0E0000D94B2F141546D656761323536300041AF
:10E0F000726475696E6F206578706C6F72657220DE
:10E1000073746B3530305632206279204D4C530099
:10E11000426F6F746C6F616465723E004875683F52
:10E1200000436F6D70696C6564206F6E203D200048
:10E130004350552054797065202020203D20005FF9
:10E140005F4156525F415243485F5F3D2000415658
:10E1500052204C696243205665723D20004743437C
:10E160002056657273696F6E203D20004350552024
:10E1700049442020202020203D20004C6F7720663D
:10E18000757365202020203D20004869676820665F
:10E190007573652020203D200045787420667573D6
:10E1A00065202020203D20004C6F636B2066757336
:10E1B000652020203D20004D617220203720323024
:10E1C000313300312E362E3800342E332E350056A2
:10E1D00023202020414444522020206F7020636F70
:10E1E00064652020202020696E73747275637469E1
:10E1F0006F6E2061646472202020496E74657272B3
:10E20000757074006E6F20766563746F7200726A49
:10E210006D702020006A6D70200057686174207056
:10E220006F72743A00506F7274206E6F7420737541
:10E2300070706F72746564004D7573742062652030
:10E2400061206C6574746572002000577269747483
:10E25000696E672045450052656164696E672045B7
:10E26000450045452065727220636E743D00504F35
:10E27000525400303D5A65726F2061646472003FF1
:10E280003D43505520737461747300403D454550C3
:10E29000524F4D207465737400423D426C696E6B41
:10E2A000204C454400453D44756D70204545505215
:10E2B0004F4D00463D44756D7020464C415348001B
:10E2C000483D48656C70004C3D4C69737420492F83
:10E2D0004F20506F72747300513D51756974005234
:10E2E0003D44756D702052414D00563D73686F7707
:10E2F00020696E7465727275707420566563746FF0
:10E30000727300593D506F727420626C696E6B00BD
:10E310002A0011241FBECFEFD1E2DEBFCDBF01E046
:10E320000CBF12E0A0E0B2E0EEE1FDEF03E00BBFB6
:10E3300002C007900D92A030B107D9F712E0A0E01B
:10E34000B2E001C01D92AE30B107E1F70F9460F367
:10E350000D948DFE01E20EBF0FEF0DBF11241FBE05
:10E360000D9460F30D9400F020E030E040ED57E0B4
:10E3700005C0FA013197F1F72F5F3F4F2817390792
:10E38000C0F308959C01260F311DC901A0E0B0E043
:10E390002F5F3F4FABBFFC018791882361F08093D3
:10E3A000C6008091C00086FFFCCF8091C0008064D1
:10E3B0008093C000EACF08958DE08093C6008091DD
:10E3C000C00086FFFCCF8091C00080648093C000B5
:10E3D0008AE08093C6008091C00086FFFCCF8091C8
:10E3E000C00080648093C00008950F94C2F10F9420
:10E3F000DCF10895FC019081992359F09093C600B7
:10E400008091C00086FFFCCF8091C0008064809323
:10E41000C0003196992379F70895282F982F929567
:10E420009F70892F805D8A3308F0895F8093C600D2
:10E430008091C00086FFFCCF8091C00080648093F3
:10E44000C000822F8F70982F905D9A3308F0995FEB
:10E450009093C6008091C00086FFFCCF8091C000E1
:10E4600080648093C00008959C01FB01853691056E
:10E470001CF46330710594F0C90164E670E00F94F8
:10E480002EFE605D7F4F6093C6008091C00086FFC6
:10E49000FCCF8091C00080648093C0002B30310598
:10E4A00014F43297B4F0C90164E670E00F942EFEC4
:10E4B0006AE070E00F942EFE605D7F4F6093C600AF
:10E4C0008091C00086FFFCCF8091C0008064809363
:10E4D000C000C9016AE070E00F942EFEC0968093E0
:10E4E000C6008091C00086FFFCCF8091C000806490
:10E4F0008093C00008951F93182F8EE692EE60E07F
:10E500000F94C2F11093C6008091C00086FFFCCF2B
:10E510008091C00080648093C0000F94DCF11F9153
:10E5200008952F923F924F925F926F927F928F92B7
:10E530009F92AF92BF92CF92DF92EF92FF920F9392
:10E540001F93DF93CF93CDB7DEB762970FB6F894E2
:10E55000DEBF0FBECDBF382E622ECA01DB015C01CB
:10E560006D01772420E2222E2E010894411C511CBB
:10E570008BC081E0A81680E0B80681E0C80680E084
:10E58000D80628F0C601AA27BB270F940DF2BB2797
:10E59000AD2D9C2D8B2D0F940DF28A2D0F940DF225
:10E5A0002092C6008091C00086FFFCCF8091C00001
:10E5B00080648093C0009DE29093C6008091C0006B
:10E5C00086FFFCCF8091C00080648093C0002092C1
:10E5D000C6008091C00086FFFCCF8091C00080649F
:10E5E0008093C00019828601750188249924A1E0D6
:10E5F0003A1651F03A1620F0B2E03B1661F409C029
:10E600000BBFF701779007C0C7010F9477FE782EF4
:10E6100002C0F7017080872D0F940DF22092C60082
:10E620008091C00086FFFCCF8091C0008064809301
:10E63000C000872D8052F401EF70F0708F3520F408
:10E64000E40DF51D708204C0E40DF51D8EE280839B
:10E650000894E11CF11C011D111D0894811C911CE2
:10E6600090E18916910409F0C2CF80E190E0A0E02A
:10E67000B0E0A80EB91ECA1EDB1E198AC2010F9493
:10E68000FAF10F94DCF16A94662009F072CF629679
:10E690000FB6F894DEBF0FBECDBFCF91DF911F91B3
:10E6A0000F91FF90EF90DF90CF90BF90AF909F9031
:10E6B0008F907F906F905F904F903F902F90089534
:10E6C0002F923F924F925F926F927F928F929F9282
:10E6D000AF92BF92CF92DF92EF92FF920F931F9370
:10E6E000DF93CF93CDB7DEB7CD53D1400FB6F894BB
:10E6F000DEBF0FBECDBF01E20EBF0FEF0DBF94B75F
:10E70000F894A89514BE80916000886180936000A1
:10E7100010926000789493FF05C0E0910002F091A0
:10E7200001021995279A2F9A8091C00082608093E8
:10E73000C00080E18093C40088E18093C1000000A4
:10E74000EE24FF24870144E0A42EB12CCC24DD2448
:10E7500024C0C5010197F1F70894E11CF11C011DCB
:10E76000111D21E2E2162EE4F20620E0020720E06D
:10E77000120718F031E0C32ED12CC801B70127ECE5
:10E780003BE140E050E00F9441FE611571058105C9
:10E79000910519F485B1805885B98091C00087FD35
:10E7A00003C0C114D104A9F2A6014F5F5F4FC25E3E
:10E7B000DE4F59834883CE51D140C25EDE4F8881FF
:10E7C0009981CE51D140019711F00D9410FEC05D9A
:10E7D000DE4F19821882C053D14060E0C15DDE4F28
:10E7E0001882CF52D14088249924C35DDE4F19820C
:10E7F0001882CD52D140C05EDE4F188219821A8233
:10E800001B82C052D140CE5CDE4F188219821A8220
:10E810001B82C253D140EE24FF2487010BBFF701B6
:10E8200007911691C45CDE4F19830883CC53D14005
:10E830000D940BFEC25EDE4F28813981CE51D1404E
:10E840002130310509F52091C600C25EDE4F1982E4
:10E850001882CE51D14022C02F5F3F4F4F4F5F4FA4
:10E86000213082E138078AE7480780E0580780F0C6
:10E87000C45CDE4FE881F981CC53D140EF5FFF4F9C
:10E8800019F0EE27FF27099420E030E040E050E047
:10E890008091C00087FFE0CF2091C600C35DDE4FAE
:10E8A00048815981CD52D1404F5F5F4FC35DDE4FEC
:10E8B00059834883CD52D140213209F063C64A3092
:10E8C000510508F05FC60894811C911C53E0851621
:10E8D000910409F059C600E010E018C081E280936D
:10E8E000C6008091C00086FFFCCF8091C00080648C
:10E8F0008093C0002F5F3F4F2931310579F70F9486
:10E90000DCF10F5F1F4F0530110519F020E030E0FA
:10E91000E5CF10920A0210920B0210920C02109294
:10E920000D02109206021092070210920802109235
:10E930000902109202021092030210920402109235
:10E9400005028FEE90EE60E00F94F5F180E191EE1C
:10E9500060E00F94C2F18091C00087FFFCCF9091DE
:10E96000C600903608F09F759032B8F09093C600BC
:10E970008091C00086FFFCCF8091C00080648093AE
:10E98000C000A0E2A093C6008091C00086FFFCCF2B
:10E990008091C00080648093C000983409F4D7C18E
:10E9A0009934B8F4923409F459C1933458F490333B
:10E9B00019F1903308F4E3C59F33A1F1903409F0C5
:10E9C000DEC5BDC0953409F470C1963409F0D7C5D1
:10E9D00098C1923509F42BC2933538F49C3409F46C
:10E9E000F5C1913509F0CBC518C2963509F445C279
:10E9F000993509F0C4C567C483E792EE62E00F94CD
:10EA0000F5F110920602109207021092080210927D
:10EA1000090210920A0210920B0210920C0210923C
:10EA20000D0213C18FE792EE62E00F94F5F18FEEC5
:10EA300090EE60E00F94F5F181E291EE60E00F94CA
:10EA4000C2F187EB91EE60E00F94F5F180E391EE77
:10EA500060E00F94C2F184EE90EE60E00F94F5F167
:10EA60008FE391EE60E00F94C2F186E090E061E008
:10EA700070E00F9434F20F94DCF18DE591EE60E0DC
:10EA80000F94C2F189EC91EE60E00F94F5F18EE401
:10EA900091EE60E00F94C2F183EC91EE60E00F9490
:10EAA000F5F18CE691EE60E00F94C2F18EE10F94E7
:10EAB0000DF288E90F940DF281E00F940DF20F949E
:10EAC000DCF18BE791EE60E00F94C2F119E0E0E039
:10EAD000F0E010935700E4918E2F0F940DF20F94F5
:10EAE000DCF18AE891EE60E00F94C2F1E3E0F0E03F
:10EAF00010935700E4918E2F0F940DF20F94DCF1D8
:10EB000089E991EE60E00F94C2F1E2E0F0E0109349
:10EB10005700E4918E2F0F940DF20F94DCF188EAE8
:10EB200091EE60E00F94C2F1E1E0F0E01093570045
:10EB30001491812F0F940DF20F94DCF107CF8BE825
:10EB400092EE62E00F94F5F18BE492EE60E00F94A8
:10EB5000F5F10F94DCF100E010E019C0C8016F2D51
:10EB60000F947FFEFF2031F489E492EE60E00F9471
:10EB7000C2F10BC0F092C6008091C00086FFFCCFAE
:10EB80008091C00080648093C0000F5F1F4FC80158
:10EB900081519F41A0E0B0E0ABBFFC01F790BAE229
:10EBA000FB1621F0E2E000301E07C1F60F94DCF105
:10EBB0000F94DCF187E592EE60E00F94F5F10F948D
:10EBC000DCF1CC24DD2400E010E01EC0C8010F946D
:10EBD00077FEF82E882331F489E492EE60E00F94FA
:10EBE000C2F10BC08093C6008091C00086FFFCCFAD
:10EBF0008091C00080648093C000FE1419F00894D6
:10EC0000C11CD11C0F5F1F4FC80181519F41A0E063
:10EC1000B0E0ABBFFC01E790FAE2EF1621F022E092
:10EC20000030120799F60F94DCF10F94DCF182E6C4
:10EC300092EE60E00F94C2F1C60161E070E00F94C3
:10EC400034F20F94DCF10F94DCF110920202109276
:10EC50000302109204021092050278CE89E992EE26
:10EC600062E00F94F5F1279A2F9A16C02F9880E052
:10EC700090E0E0EDF7E03197F1F7019684369105E9
:10EC8000C1F72F9A80E090E0E0EDF7E03197F1F7DF
:10EC9000019684369105C1F78091C00087FFE6CFC9
:10ECA0008091C00087FFFCCF64C485EA92EE62E0E9
:10ECB0000F94F5F140910202509103026091040219
:10ECC0007091050281E020E10F9491F2809102029F
:10ECD00090910302A0910402B091050280509F4FD1
:10ECE000AF4FBF4F8093020290930302A0930402A0
:10ECF000B093050280509041A040B04008F426CE69
:10ED0000A4CF83EB92EE62E00F94F5F140910602FE
:10ED100050910702609108027091090280E020E1A1
:10ED20000F9491F28091060290910702A09108023F
:10ED3000B091090280509F4FAF4FBF4F80930602A2
:10ED400090930702A0930802B0930902FFCD80ECD4
:10ED500092EE62E00F94F5F183E792EE60E00F949B
:10ED6000F5F18FE792EE60E00F94F5F18BE892EE0B
:10ED700060E00F94F5F189E992EE60E00F94F5F10F
:10ED800085EA92EE60E00F94F5F183EB92EE60E09D
:10ED90000F94F5F180EC92EE60E00F94F5F187ECC2
:10EDA00092EE60E00F94F5F188ED92EE60E00F9442
:10EDB000F5F18FED92EE60E00F94F5F18AEE92EEB0
:10EDC00060E00F94F5F183E093EEBDCD87EC92EE19
:10EDD00062E00F94F5F181E40F947BF282E40F94EA
:10EDE0007BF283E40F947BF284E40F947BF285E45E
:10EDF0000F947BF286E40F947BF287E40F947BF20E
:10EE000088E40F947BF28AE40F947BF28BE40F94F6
:10EE10007BF28CE40F947BF299CD88ED92EE62E068
:10EE20000F94F5F1772473948824992409C48FED05
:10EE300092EE62E00F94F5F140910A0250910B02BC
:10EE400060910C0270910D0282E020E10F9491F22A
:10EE500080910A0290910B02A0910C02B0910D02D8
:10EE600080509F4FAF4FBF4F80930A0290930B0289
:10EE7000A0930C02B0930D0269CD8AEE92EE62E08F
:10EE80000F94F5F184EE90EE60E00F94F5F18FECC5
:10EE900091EE60E00F94F5F1662477244301CC5D98
:10EEA000DE4F19821882C452D140D401C301B695F5
:10EEB000A79597958795CA5DDE4F88839983AA8326
:10EEC000BB83C652D140CC5DDE4FA881B981C4520C
:10EED000D1401196CC5DDE4FB983A883C452D14096
:10EEE000CD0162E070E00F9434F2B0E2B093C6005E
:10EEF0008091C00086FFFCCF8091C0008064809329
:10EF0000C000EDE2E093C6008091C00086FFFCCF18
:10EF10008091C00080648093C000F0E2F093C6004E
:10EF20008091C00086FFFCCF8091C00080648093F8
:10EF3000C000CA5DDE4FE880F9800A811B81C6529D
:10EF4000D140BB27A12F902F8F2D0F940DF2CA5DBA
:10EF5000DE4F8881C652D1400F940DF2B0E2FB2EF5
:10EF6000F092C6008091C00086FFFCCF8091C00067
:10EF700080648093C0000DE30093C6008091C000C0
:10EF800086FFFCCF8091C00080648093C00010E2B7
:10EF90001093C6008091C00086FFFCCF8091C00016
:10EFA00080648093C0008BBEF3012791C65DDE4F65
:10EFB0002883CA52D140A22EBB24CC24DD2408943D
:10EFC000611C711C811C911C8BBEF3018791282E42
:10EFD0003324442455240894611C711C811C911C09
:10EFE0008BBEF3013791C55DDE4F3883CB52D140E4
:10EFF0000894611C711C811C911C8BBEF30147910C
:10F00000C45DDE4F4883CC52D140ADEFEA2EAFEF66
:10F01000FA2EAFEF0A2FAFEF1A2F6E0C7F1C801E57
:10F02000911E142D032DF22CEE24EA0CFB1C0C1D5A
:10F030001D1D0F940DF220E22093C6008091C000A8
:10F0400086FFFCCF8091C00080648093C000C65DC5
:10F05000DE4F8881CA52D1400F940DF230E23093D6
:10F06000C6008091C00086FFFCCF8091C000806404
:10F070008093C000C45DDE4F8881CC52D1400F9494
:10F080000DF240E24093C6008091C00086FFFCCFA5
:10F090008091C00080648093C000C55DDE4F888190
:10F0A000CB52D1400F940DF250E25093C6008091A4
:10F0B000C00086FFFCCF8091C00080648093C000B8
:10F0C0008FEFE8168FEFF80680E0080780E018075A
:10F0D00031F484E092EE60E00F94C2F1DFC0D80119
:10F0E000C7018070907CA070B0708050904CA040A0
:10F0F000B040D1F52FEF3FE340E050E0E222F322B1
:10F1000004231523CA5DDE4FA880B980CA80DB8046
:10F11000C652D140AE0CBF1CC01ED11EAA0CBB1CD7
:10F12000CC1CDD1C8EE092EE60E00F94C2F1BB2798
:10F13000A12F902F8F2D0F940DF28E2D0F940DF285
:10F1400030E23093C6008091C00086FFFCCF8091F2
:10F15000C00080648093C0004EE34093C60080915D
:10F16000C00086FFFCCF87C08EE09EEFA0E0B0E03D
:10F17000E822F9220A231B239CE0E91694E9F90608
:10F1800090E0090790E0190709F088C0C45DDE4FE0
:10F19000A881CC52D140EA2EFF2400E010E0102FCD
:10F1A0000F2DFE2CEE24C55DDE4FB881CB52D14031
:10F1B000EB0EF11C011D111DD601C501817090706F
:10F1C000A070B070DC0199278827E80EF91E0A1F8D
:10F1D0001B1F20EF30E040E050E0A222B322C42207
:10F1E000D52241E1AA0CBB1CCC1CDD1C4A95D1F7F1
:10F1F000EA0CFB1C0C1D1D1D81E090E0A0E0B0E0BE
:10F20000282239224A225B2235E1220C331C441C7D
:10F21000551C3A95D1F7E20CF31C041D151D57013E
:10F220006801AA0CBB1CCC1CDD1C85E192EE60E0E1
:10F230000F94C2F1C801AA27BB270F940DF2BB2778
:10F24000A12F902F8F2D0F940DF28E2D0F940DF274
:10F2500090E29093C6008091C00086FFFCCF809121
:10F26000C00080648093C000AEE3A093C60080918C
:10F27000C00086FFFCCF8091C00080648093C000F6
:10F28000C601AA27BB270F940DF2BB27AD2D9C2DDD
:10F290008B2D0F940DF28A2D0F940DF20F94DCF14B
:10F2A000CC5DDE4FE881F981C452D140F99709F471
:10F2B0004DCBF4E0EF2EF12C012D112D6E0C7F1CA7
:10F2C000801E911EF2CD83E093EE62E00F94F5F183
:10F2D0008AE192EE60E00F94C2F18091C00087FF56
:10F2E000FCCF1091C6001F751093C6008091C0001E
:10F2F00086FFFCCF8091C00080648093C0000F9493
:10F30000DCF1812F81548A3108F036C1163409F4BA
:10F3100095C0173490F4133409F44EC0143430F40B
:10F320001134F1F0123409F01DC130C0143409F465
:10F3300059C0153409F016C16BC01A3409F4C4C0A1
:10F340001B3438F4173409F48FC0183409F00AC19B
:10F35000A1C01B3409F4D2C01C3409F003C1E8C0B9
:10F360008FEF81B90DC082B1809582B980E090E0C5
:10F37000E0EDF7E03197F1F70196883C9105C1F790
:10F380008091C00087FFEFCF12B8EFC08FEF84B934
:10F390000DC085B1809585B980E090E0E0EDF7E0A3
:10F3A0003197F1F70196883C9105C1F78091C00033
:10F3B00087FFEFCF15B8D9C08FEF87B90DC088B1DF
:10F3C000809588B980E090E0E0EDF7E03197F1F7C3
:10F3D0000196883C9105C1F78091C00087FFEFCF6F
:10F3E00018B8C3C08FEF8AB90DC08BB180958BB9A7
:10F3F00080E090E0E0EDF7E03197F1F70196883C8E
:10F400009105C1F78091C00087FFEFCF1BB8ADC059
:10F410008FEF8DB90DC08EB180958EB980E090E0F0
:10F42000E0EDF7E03197F1F70196883C9105C1F7DF
:10F430008091C00087FFEFCF1EB897C08FEF80BBD1
:10F440000DC081B3809581BB80E090E0E0EDF7E0F6
:10F450003197F1F70196883C9105C1F78091C00082
:10F4600087FFEFCF11BA81C08FEF83BB0DC084B38C
:10F47000809584BB80E090E0E0EDF7E03197F1F714
:10F480000196883C9105C1F78091C00087FFEFCFBE
:10F4900014BA6BC08FEF809301010FC080910201FD
:10F4A00080958093020180E090E0E0EDF7E03197F5
:10F4B000F1F70196883C9105C1F78091C00087FF64
:10F4C000EDCF1092020151C08FEF809304010FC065
:10F4D0008091050180958093050180E090E0E0ED4A
:10F4E000F7E03197F1F70196883C9105C1F78091DB
:10F4F000C00087FFEDCF1092050137C08FEF8093DA
:10F5000007010FC08091080180958093080180E079
:10F5100090E0E0EDF7E03197F1F70196883C910536
:10F52000C1F78091C00087FFEDCF109208011DC088
:10F530008FEF80930A010FC080910B01809580931B
:10F540000B0180E090E0E0EDF7E03197F1F70196F4
:10F55000883C9105C1F78091C00087FFEDCF1092E4
:10F560000B0103C085E292EEEEC98091C00087FFD7
:10F57000FCCF8091C600EAC988E392EEE4C98CE131
:10F5800091EEE1C988249924933011F1943028F444
:10F59000913089F09230B8F408C0953061F195301F
:10F5A000F0F0963009F048C043C02B3109F042C951
:10F5B00091E06BE13FC96227C15DDE4F2883CF52E6
:10F5C000D14092E037C9B22FA0E0622793E032C960
:10F5D000822F90E0A82BB92B622794E02BC92E3004
:10F5E00009F039C3622795E0C05DDE4F19821882A9
:10F5F000C053D1401FC9E1E0F0E0EC0FFD1FC05D3A
:10F60000DE4F08811981C053D140E00FF11F2083E4
:10F610000F5F1F4FC05DDE4F19830883C053D14079
:10F6200062270A171B0709F005C9D80196E002C92D
:10F63000261709F010C303C0973009F0FBC87724E0
:10F640009981933109F412C19431C8F4963009F4C8
:10F65000D8C0973050F4923009F406C1933009F4C1
:10F660006DC0913009F059C253C0913109F477C08F
:10F67000923108F0BBC0903109F04FC2F5C098310B
:10F6800009F487C0993150F4953109F4EFC09531F0
:10F6900008F4C6C1963109F040C2C2C19A3109F4DA
:10F6A0006CC09A3108F491C09B3109F45BC09D3164
:10F6B00009F033C29D81903359F48F81882311F46E
:10F6C0009EE11CC0813011F091E018C098E916C08D
:10F6D000892F807591F0903539F4E0E0F0E089E011
:10F6E0008093570094910AC0983539F4E3E0F0E034
:10F6F00089E080935700949101C090E01A821B82A8
:10F700008D818C831D829E831F8227E030E009C299
:10F710001A8288E08B8381E48C8386E58D8382E581
:10F720008E8389E48F8383E5888780E589878FE5E9
:10F730008A8782E38B872BE030E0F3C18A818139AD
:10F7400041F0823941F0803911F48FE005C080E04A
:10F7500003C082E001C08AE01A828B8344C0772410
:10F76000739482C08D81882311F48EE12CC0813086
:10F7700011F081E028C088E926C01A82E1E0F0E0BB
:10F7800089E08093570084918B831C8224E030E0D1
:10F79000C8C18B81803589F48C81883039F4E2E0EE
:10F7A000F0E089E08093570084910DC0E0E0F0E044
:10F7B00089E080935700849106C0E3E0F0E089E09F
:10F7C0008093570084911A82DFCF8D81836C99E0FA
:10F7D000E1E0F0E0082E90935700E89507B600FCB2
:10F7E000FDCF1A821B8223E030E09BC180EC8A832C
:10F7F000CE5CDE4F188219821A821B82C253D1401E
:10F800008EC18A8190E0A0E0B0E0582F44273327D2
:10F8100022278B8190E0A0E0B0E0DC0199278827C7
:10F82000282B392B4A2B5B2B8D8190E0A0E0B0E098
:10F83000282B392B4A2B5B2B8C8190E0A0E0B0E089
:10F84000BA2FA92F982F8827282B392B4A2B5B2BCF
:10F85000220F331F441F551FC05EDE4F288339839C
:10F860004A835B83C052D1401A8259C13A81C95C34
:10F87000DE4F3883C753D140CA5CDE4F1882C6536F
:10F88000D1408B81C82EDD24CA5CDE4F488159816E
:10F89000C653D140C42AD52A933109F082C0CE5C28
:10F8A000DE4F88819981AA81BB81C253D1408050AB
:10F8B000904CA340B04030F583E0CE5CDE4FE88052
:10F8C000F9800A811B81C253D140F70100935B008C
:10F8D00080935700E89507B600FCFDCFCE5CDE4F65
:10F8E000088119812A813B81C253D14000501F4FAA
:10F8F0002F4F3F4FCE5CDE4F088319832A833B8313
:10F90000C253D140C05EDE4F488159816A817B81FC
:10F91000C052D140DE011B9631E08C9111962C91A2
:10F9200011971296C75CDE4F2883C953D140C85C3B
:10F93000DE4F1882C853D14090E0C85CDE4FE881AA
:10F94000F981C853D1408E2B9F2B0C01FA01609393
:10F950005B0030935700E89511244E5F5F4F6F4F67
:10F960007F4F0EEFE02E0FEFF02ECE0CDF1CC114F8
:10F97000D10499F685E0C05EDE4F088119812A81A5
:10F980003B81C052D140F80120935B008093570027
:10F99000E89507B600FCFDCF81E180935700E8951C
:10F9A00035C0C05EDE4F88819981AA81BB81C0527B
:10F9B000D140B695A795979587957C018601ABE0D8
:10F9C000AA2EB12CAC0EBD1E0BC0D5016D915D01F0
:10F9D000C7010F947FFE0894E11CF11C01501040F8
:10F9E0000115110591F7A60160E070E0440F551F65
:10F9F000661F771FC05EDE4FE880F9800A811B8199
:10FA0000C052D1404E0D5F1D601F711F1A82C05E33
:10FA1000DE4F488359836A837B83C052D1407FC0C5
:10FA2000FA80C55CDE4FF882CB53D140C65CDE4F16
:10FA30001882CA53D1408B81C82EDD24C65CDE4FAC
:10FA400008811981CA53D140C02AD12A1A828981DA
:10FA5000BE016D5F7F4F843121F59601C05EDE4FA0
:10FA6000E880F9800A811B81C052D1400BBFF701A9
:10FA700087919691DB018C9311969C936E5F7F4FDB
:10FA8000D801C7010296A11DB11DC05EDE4F88835B
:10FA90009983AA83BB83C052D14022503040F1F6F3
:10FAA00036C0C05EDE4F288139814A815B81C052F9
:10FAB000D1400894C108D108760100E010E0089414
:10FAC000C11CD11C0894E11CF11C011D111DE20E8A
:10FAD000F31E041F151F21BDBB27A52F942F832FB5
:10FAE00082BD2F5F3F4F4F4F5F4FF89A80B5DB01CC
:10FAF0008D93BD012E153F054007510761F7C05E8C
:10FB0000DE4F288339834A835B83C052D1409601FC
:10FB10002D5F3F4FFB01108204C080EC8A8322E0FE
:10FB200030E08BE18093C6008091C00086FFFCCF5F
:10FB30008091C00080648093C000C15DDE4FF88179
:10FB4000CF52D140F093C6008091C00086FFFCCF19
:10FB50008091C00080648093C000432F3093C60022
:10FB60008091C00086FFFCCF8091C00080648093AC
:10FB7000C000922F2093C6008091C00086FFFCCF6A
:10FB80008091C00080648093C0008EE08093C600A6
:10FB90008091C00086FFFCCF8091C000806480937C
:10FBA000C00065E1C15DDE4FE880CF52D1406E25D7
:10FBB00069276427FE01319610C090819093C6009A
:10FBC0008091C00086FFFCCF31968091C000806498
:10FBD0008093C0006927215030402115310569F715
:10FBE0006093C6008091C00086FFFCCF8091C0006A
:10FBF00080648093C00085B1805885B9772081F4F6
:10FC0000C15DDE4F0881CF52D1400F5FC15DDE4F35
:10FC10000883CF52D14090E0A0E0B0E00D941AF4F8
:10FC200027982F9880E090E020ED37E0F901319798
:10FC3000F1F7019684369105C9F700008091C00064
:10FC40008D7F8093C00081E180935700E895EE2777
:10FC5000FF270994FFCF90E00D941AF497FB092E2B
:10FC600007260AD077FD04D02ED006D000201AF443
:10FC7000709561957F4F0895F6F7909581959F4F08
:10FC80000895A1E21A2EAA1BBB1BFD010DC0AA1FDD
:10FC9000BB1FEE1FFF1FA217B307E407F50720F0F5
:10FCA000A21BB30BE40BF50B661F771F881F991F70
:10FCB0001A9469F760957095809590959B01AC01B9
:10FCC000BD01CF010895AA1BBB1B51E107C0AA1FAC
:10FCD000BB1FA617B70710F0A61BB70B881F991FED
:10FCE0005A95A9F780959095BC01CD010895F99991
:10FCF000FECF92BD81BDF89A992780B50895262F31
:10FD0000F999FECF1FBA92BD81BD20BD0FB6F89400
:0EFD1000FA9AF99A0FBE01960895F894FFCF63
:040000033000E000E9
:00000001FF
