:1000000002C1000031C100002FC100002DC100005D
:100010002BC1000029C1000027C1000025C100003C
:1000200023C1000021C100001FC100001DC100004C
:100030001BC1000019C1000017C1000015C100005C
:1000400013C1000011C100000FC100000DC100006C
:100050000BC1000009C1000007C10000E3C7000098
:1000600003C100000C9485080C945C08FDC00000DE
:10007000FBC00000F9C00000F7C00000F5C00000A0
:10008000F3C00000F1C00000EFC00000EDC00000B0
:10009000EBC00000E9C00000E7C000000C94BB0802
:1000A000E3C00000E1C00000DFC00000DDC00000D0
:1000B000DBC00000D9C00000D7C00000D5C00000E0
:1000C000D3C00000D1C00000CFC00000CDC00000F0
:1000D000CBC00000C9C00000C7C00000C5C0000000
:1000E000C3C0000000002100240027002A002D00CA
:1000F0003000330001010000040107010A01000083
:100100002200250028002B002E00310034000201BF
:100110000000050108010B0100002000230026005B
:1001200029002C002F00320000010000030106010D
:10013000090105050505070508080808020202026D
:100140000A0A080804040404010101010101010173
:100150000303030303030303040707070C0C0C0C3E
:100160000C0C0C0C02020202060606060606060627
:100170000B0B0B0B0B0B0B0B0102102020080810B4
:100180002040102040800201020108040201010207
:1001900004081020408080402010080402018004E0
:1001A000020180402010080402010804020101023B
:1001B0000408102040800102040810204080000044
:1001C0000A0B02090C0D0E080703040100000000D1
:1001D000000000000000000000000000000000001F
:1001E00000000000000000000000121110000000DC
:1001F00000000000000000000000000000000000FF
:1002000000000000DE0911241FBECFEFD1E2DEBFE7
:10021000CDBF00E00CBF12E0A0E0B2E0E6E5F3E203
:1002200000E00BBF02C007900D92A43EB107D9F7C2
:1002300025E0A4EEB2E001C01D92AA31B207E1F7B9
:1002400011E0C3E0D1E000E006C021970109802F52
:10025000FE010E948811C230D10780E00807A9F78B
:100260000E94920A0C94A911CBCE9091F503E92F2C
:10027000F0E0EB54FC4F880F880F880F680F608305
:100280009F5F9093F503089522E132E098E080E0CB
:10029000A9014C5F5F4FF901619161118F5FE41714
:1002A000F507D1F79150285F3F4F9111F1CF089595
:1002B00030E020E080E0F901EA5EFD4FA901465EF2
:1002C0005D4F919191118F5FE417F507D1F7285F8A
:1002D0003F4F2034310579F7089596E0899FD0018A
:1002E0001124A555BB4F90967C936E935F9791E038
:1002F00091969C939197E0911805F0911905909132
:100300001705992339F0309751F0811108C0809179
:10031000C7041994309719F05C968C91FACF089520
:100320008150823108F05AC0E82FF0E08827E45667
:10033000FE4F8F4F0C948811BC01C001AE01B40177
:10034000B801EE01C301C901CD01D301D701DB0121
:10035000E101E501EE01E901EF01F3018091800087
:100360008F77809380000895809180008F7DF9CFF2
:1003700080918000877FF5CF84B58F7784BD089505
:1003800084B58F7DFBCF8091B0008F778093B000D4
:1003900008958091B0008F7DF9CF809190008F7784
:1003A000809390000895809190008F7DF9CF809187
:1003B0009000877FF5CF8091A0008F778093A00079
:1003C00008958091A0008F7DF9CF8091A000877F54
:1003D000F5CF809120018F7780932001089580913F
:1003E00020018F7DF9CF80912001877FF5CFCF93BA
:1003F000DF93282F30E0F901E254FE4F8491F90198
:10040000E858FE4FD491F901EE5CFE4FC491CC2325
:1004100099F0811185DFEC2FF0E0EE0FFF1FE85E11
:10042000FE4FA591B491EC91ED2381E090E009F4A9
:1004300080E0DF91CF91089580E090E0FACF1F93A4
:10044000CF93DF93282F30E0F901E254FE4F8491DF
:10045000F901E858FE4FD491F901EE5CFE4FC491CA
:10046000CC23A1F0162F81115BDFEC2FF0E0EE0F13
:10047000FF1FE250FF4FA591B4918FB7F894EC9114
:10048000111108C0D095DE23DC938FBFDF91CF918F
:100490001F910895DE2BF8CFCF92DF92EF92FF925B
:1004A0000F931F93CF93DF93082F10E061E081112A
:1004B0002DC080910902C3DFE80183E0CC0FDD1F6E
:1004C0008A95E1F7CE5EDD4F9AE0E92E92E0F92EB3
:1004D0006E0188E0C80ED11C9991F70181917F01CE
:1004E00061E0911101C060E0AADFCC15DD05A1F744
:1004F000F801EE5FFD4F60E08081DF91CF911F91A9
:100500000F91FF90EF90DF90CF9099CFF801EF5FC0
:10051000FD4F8081D0CFCF93DF9390E0FC01E8586E
:10052000FE4F24918E5C9E4FFC0184918823C9F07C
:1005300090E0880F991FFC01EC51FF4FA591B491F9
:10054000FC01E250FF4FC591D49161110DC09FB7DE
:10055000F8948C91209582238C938881282328837A
:100560009FBFDF91CF910895623051F49FB7F89407
:100570003C91822F809583238C93E8812E2BEFCFA3
:100580008FB7F894EC912E2B2C938FBFEACF3FB707
:10059000F8948091B1039091B203A091B303B0910C
:1005A000B40326B5A89B05C02F3F19F00196A11DE5
:1005B000B11D3FBFBA2FA92F982F8827BC01CD01AD
:1005C000620F711D811D911D42E0660F771F881F0C
:1005D000991F4A95D1F708958F929F92AF92BF923B
:1005E000CF92DF92EF92FF924B015C01D0DF6B0163
:1005F0007C01CDDF6C197D098E099F09683E73402F
:1006000081059105B0F321E0821A9108A108B10893
:1006100088EEC80E83E0D81EE11CF11C8114910401
:10062000A104B10431F7FF90EF90DF90CF90BF901D
:10063000AF909F908F9008952FB7F8946091AD037D
:100640007091AE038091AF039091B0032FBF0895D6
:100650000F931F93CF93DF93C82FD62F86E0C89FA9
:10066000F0011124E555FB4F11A2878D90A1813037
:100670009105E1F058F082309105D1F1039709F42A
:100680003CC0DF91CF911F910F9108956623C9F36C
:1006900061E070E08C2F21DECFDF60930305709363
:1006A00004058093050590930605EBCFC5DF009107
:1006B0000305109104052091050530910605AB0155
:1006C000BC01401B510B620B730B8091150590917F
:1006D0001605B0E0A0E084179507A607B70740F419
:1006E00062E070E08C2FDF91CF911F910F91F5CDDB
:1006F00063E070E0D111C5CFF5CF70E060E0F2CFDC
:10070000862F642F08CF862F642F99CE862F6FCE29
:1007100008950895AF92BF92CF92DF92EF92FF9229
:100720000F931F93CF93DF936C017B018B01040F19
:10073000151FEB015E01AE18BF08C017D10759F0B5
:100740006991D601ED91FC910190F081E02DC601F7
:100750001995892B79F7C501DF91CF911F910F91E1
:10076000FF90EF90DF90CF90BF90AF900895FC0185
:10077000538D448D252F30E0842F90E0821B930B06
:10078000541710F0CF96089501970895FC01918DAC
:10079000828D981761F0A28DAE0FBF2FB11D5D96AF
:1007A0008C91928D9F5F9F73928F90E008958FEF51
:1007B0009FEF0895FC01918D828D981731F0828D05
:1007C000E80FF11D858D90E008958FEF9FEF08955C
:1007D000FC01918D228D892F90E0805C9F4F821BC0
:1007E00091098F739927089586EF93E0F1DF21E057
:1007F000892B09F420E0822F0895FC01A48DA80F15
:10080000B92FB11DA35ABF4F2C91848D90E0019652
:100810008F739927848FA689B7892C93A089B18972
:100820008C91837080648C93938D848D981306C013
:100830000288F389E02D80818F7D80830895EF9277
:10084000FF920F931F93CF93DF93EC0181E0888F8A
:100850009B8D8C8D98131AC0E889F989808185FF5A
:1008600015C09FB7F894EE89FF896083E889F989FC
:1008700080818370806480839FBF81E090E0DF91FE
:10088000CF911F910F91FF90EF900895F62E0B8D51
:1008900010E00F5F1F4F0F731127E02E8C8D8E110C
:1008A0000BC00FB607FCFACFE889F989808185FF74
:1008B000F5CFCE01A2DFF2CFEB8DEC0FFD2FF11DB6
:1008C000E35AFF4FF0829FB7F8940B8FEA89FB89B8
:1008D00080818062D0CFCF93DF93EC01888D882315
:1008E000B1F0AA89BB89E889F9898C9185FD03C09B
:1008F000808186FD0CC00FB607FCF7CF8C9185FF79
:10090000F2CF808185FFEDCFCE0177DFEACFDF9197
:10091000CF91089580E090E0892B21F065DF81116F
:100920000E94000080E090E0892B49F080E090E098
:10093000892B29F00E94000081110E94000080E0B4
:1009400090E0892B49F080E090E0892B29F00E940B
:10095000000081110E94000080E090E0892B49F0A6
:1009600080E090E0892B29F00E94000081110C9416
:1009700000000895089520912503260F3327331F83
:1009800021323105ECF420916E03FC0190E080E00F
:10099000243069F082E00895A09125032191AC01F3
:1009A0004B5F5C4FA40FB52FB11D2C93019686179A
:1009B00098F380912503680F6093250380E00895E4
:1009C00081E0089510926E0381E080936D03109290
:1009D000480361E084E133DD61E085E130DDE9EB8E
:1009E000F0E080818E7F808380818D7F808388E4AA
:1009F0008093B80085E48093BC000895CF93DF9383
:100A000091E0909304038823A1F0C091B800D091A5
:100A1000BA008091BC008A7B8093BC0060E084E1D6
:100A20000EDD60E085E10BDDCDDFD093BA00C09331
:100A3000B800DF91CF9108950895E0919D038091D2
:100A40009C03E81730F4F0E0EC51FD4F808190E01A
:100A500008958FEF9FEF089590919D0380919C03DF
:100A60002FEF3FEF981748F4E92FF0E0EC51FD4FDE
:100A7000208130E09F5F90939D03C901089580918C
:100A80009C0390919D03891B990B0895CF92DF924F
:100A9000EF92FF920F931F93CF93DF937C01CB01D3
:100AA0008A0120917403222389F0EB016B01C40EAB
:100AB000D51ECC15DD0561F06991D701ED91FC9152
:100AC0000190F081E02DC7011995F3CF642F53DF1A
:100AD000C801DF91CF911F910F91FF90EF90DF90B0
:100AE000CF900895CF93DF931F92CDB7DEB7698380
:100AF000209174032223F9F020919A03203258F0B8
:100B000021E030E0FC013383228390E080E00F900D
:100B1000DF91CF91089580919B03E82FF0E0EB588F
:100B2000FC4F998190838F5F80939B0380939A03FE
:100B300081E090E0ECCF61E0CE0101961CDFF8CFC0
:100B4000CF92DF92EF92FF920F931F93CF93DF9399
:100B5000FC01C48121E020937403C093950310929B
:100B60009B0310929A038385682B83E994E0BADF94
:100B7000D0919A03D13208F08CC009DD6B017C0161
:100B800080916E03811162C082E080936E0381E0E8
:100B900080936D038FEF80936C0310926B03D0935F
:100BA0006A03A5E7B3E0EAE4F3E080E0D81380C08D
:100BB0001092490380914903CC0FC82BC09349037D
:100BC00080914803813009F077C010924803DFDC40
:100BD0006B017C01809149038093BB00809170037D
:100BE00090917103A0917203B0917303892B8A2BAA
:100BF0008B2B91F0CCDC009170031091710320914C
:100C00007203309173036C197D098E099F090617D1
:100C1000170728073907D0F18091BC0083FDDACF90
:100C200085EC8093BC00B3DC6B017C0180916E038A
:100C3000823009F443C080916C038F3F51F1809161
:100C40006C03803231F180916C0323C0809170037A
:100C500090917103A0917203B0917303892B8A2B39
:100C60008B2B09F48DCF93DC0091700310917103ED
:100C700020917203309173036C197D098E099F09CD
:100C8000061717072807390708F07ACF80916F03F6
:100C9000B5DE10929B0310929A0310927403DF91B9
:100CA000CF911F910F91FF90EF90DF90CF9008951B
:100CB0009D9191938F5F7ACF85EEB3CF8091700332
:100CC00090917103A0917203B0917303892B8A2BC9
:100CD0008B2B09F4ABCF5BDC009170031091710397
:100CE00020917203309173036C197D098E099F095D
:100CF000061717072807390708F098CFC7CF90E0E5
:100D000080E008950F931F93CF938C01C62F18DFB7
:100D10006C2F6460C80114DF6C2F6B7FC80110DF7B
:100D200083EC90E00197F1F7CF911F910F91089517
:100D30000F931F93CF93DF938C01D62FC42F607F27
:100D4000642BE0DF80E1D89FB00111246C2BC80137
:100D5000DF91CF911F910F91D5CFCF93DF9300D02B
:100D600000D01F921F92CDB7DEB798E0EAE6F2E01E
:100D7000DE01119601900D929A95E1F79091A704EA
:100D8000961708F46FEF262F30E0220F331F41E053
:100D900050E04C0F5D1F240F351FF9016081680F73
:100DA000606840E08FE994E028960FB6F894DEBFC3
:100DB0000FBECDBFDF91CF91BBCF40E061E08FE9A7
:100DC00094E0B6DF8BE39FE10197F1F7089541E0EE
:100DD000AFDF81E090E00895FB0101900020E9F78A
:100DE0003197AF01461B570BDC01ED91FC9102805E
:100DF000F381E02D19948F929F92AF92BF92EF9260
:100E0000FF920F931F93CF93DF93CDB7DEB7A197D8
:100E10000FB6F894DEBF0FBECDBF7C01FA01CB0147
:100E200019A2223008F42AE08E010F5D1F4F822E96
:100E3000912CB12CA12CBF01A50194010E94661137
:100E4000F901CA016A3004F5605DD8016E938D0125
:100E5000232B242B252B79F790E080E0109719F0B5
:100E6000BD01C701B9DFA1960FB6F894DEBF0FBE72
:100E7000CDBFDF91CF911F910F91FF90EF90BF9069
:100E8000AF909F908F900895695CDFCFCF92DF92F3
:100E9000EF92FF920F931F93CF93DF936B01770F26
:100EA000EE08FF08F7FE1EC0EC01E881F981019011
:100EB000F081E02D6DE219958C0144275527BA0188
:100EC0004C195D096E097F092AE0CE0194DF800F7D
:100ED000911FDF91CF911F910F91FF90EF90DF90C5
:100EE000CF9008952AE0B701A601DF91CF911F911D
:100EF0000F91FF90EF90DF90CF907DCF482F50E083
:100F000070E060E02AE08FE994E075CFCF93DF9343
:100F1000BC0186EF93E060DFEC016CEA72E086EFE3
:100F200093E05ADF8C0F9D1FDF91CF91089554CF2E
:100F3000CF92DF92FF920F931F93CF93DF9382EDB7
:100F400092E0E4DF06E112E088E0F82EE801249761
:100F5000699170E086EF93E099DF62ED72E086EFD1
:100F600093E0E5DFC017D10799F760ED72E086EFF7
:100F700093E0DDDF6E0184E0C80ED11C699170E062
:100F800086EF93E083DF62ED72E086EF93E0CFDFE0
:100F9000CC15DD0599F78EEA92E0B8DFFA94085F88
:100FA0001F4FF110D3CFDF91CF911F910F91FF9081
:100FB000DF90CF90089585ED8093BC008091700301
:100FC00090917103A0917203B09173030796A11DD4
:100FD000B11D23E0B695A795979587952A95D1F7EA
:100FE0002091BC0024FD03C010926E03089540912F
:100FF0007003509171036091720370917303452BDC
:10100000462B472B69F30097A105B10541F025E375
:101010002A95F1F700000197A109B109E1CF80916C
:101020006F03ECCC1F920F920FB60F9211242F93E7
:101030003F938F939F93AF93BF938091AD03909114
:10104000AE03A091AF03B091B0033091AC0323E0A5
:10105000230F2D3758F50196A11DB11D2093AC0328
:101060008093AD039093AE03A093AF03B093B0030E
:101070008091B1039091B203A091B303B091B403F6
:101080000196A11DB11D8093B1039093B203A0936B
:10109000B303B093B403BF91AF919F918F913F91F0
:1010A0002F910F900FBE0F901F90189526E8230FD9
:1010B0000296A11DB11DD2CF1F920F920FB60F92B3
:1010C00011240BB60F922F933F934F935F936F931F
:1010D0007F938F939F93AF93BF93EF93FF9386EF8D
:1010E00093E08BDBFF91EF91BF91AF919F918F9137
:1010F0007F916F915F914F913F912F910F900BBE18
:101100000F900FBE0F901F9018951F920F920FB661
:101110000F9211240BB60F922F938F939F93EF93FF
:10112000FF93E0910604F09107048081E0910C04A4
:10113000F0910D0482FD1DC0908180910F048F5F9E
:101140008F7320911004821741F0E0910F04F0E0BA
:10115000EA50FC4F958F80930F04FF91EF919F9180
:101160008F912F910F900BBE0F900FBE0F901F907D
:1011700018958081F2CF1F920F920FB60F92112413
:101180000BB60F922F933F934F935F936F937F9381
:101190008F939F93AF93BF93EF93FF938091B90089
:1011A000887F803609F44CC008F03FC0883209F4CB
:1011B000A8C028F5803109F49CC0C8F4882309F43C
:1011C000FAC0883009F495C0FF91EF91BF91AF91BB
:1011D0009F918F917F916F915F914F913F912F914F
:1011E0000F900BBE0F900FBE0F901F901895883177
:1011F00009F487C0803241F780936C0314C08034B7
:1012000009F49CC040F48033B9F38833E9F6809345
:101210006C0385ECAFC0803509F484C0883509F4CF
:1012200095C0883489F6C7DECFCF883909F48CC0E1
:1012300038F5883729F050F4883611F0803721F6D8
:1012400083E080936E031092470357C0883809F4F7
:101250007BC0803919F0803809F0B6CF8091470300
:10126000803208F071C0E091470381E08E0F8093D7
:1012700047038091BB00F0E0E95DFC4F80833DC0F7
:10128000803B39F0E0F4803A09F479C0883A09F0FB
:101290009BCF84E080936E03109226031092250367
:1012A000E0919803F091990319958091250381119C
:1012B0000FC081E0809325031092050309C0803C94
:1012C00009F4A7CF883C09F4A4CF883B09F07CCF70
:1012D000E091260381E08E0F80932603F0E0EB5F20
:1012E000FC4F80818093BB00909126038091250361
:1012F00029C0809149038093BB0085EC8093BC009A
:1013000063CF90916B0380916A03981758F5E09131
:101310006B0381E08E0F80936B03F0E0E65BFC4F84
:101320008081E9CFE0916B0381E08E0F80936B03A6
:101330008091BB00F0E0E65BFC4F808390916B03F3
:1013400080916A039817C8F285E8D8CFE0916B03C3
:1013500081E08E0F80936B038091BB00F0E0E65B31
:10136000FC4F808380916D0381115DCF81E080937C
:10137000480384EA8093BC0010926E0325CF85EC6D
:101380008093BC0010926E0380914703803230F44A
:10139000E0914703F0E0E95DFC4F10826091470364
:1013A00070E0E0919603F091970387E293E019953E
:1013B0001092470309CF10926C0335CF1092F903B6
:1013C0001092F80388EE93E0A0E0B0E08093FA0377
:1013D0009093FB03A093FC03B093FD0326E732E058
:1013E0003093F7032093F60325EC30E030930304A9
:1013F0002093020424EC30E030930504209304048D
:1014000020EC30E0309307042093060421EC30E018
:10141000309309042093080422EC30E030930B044D
:1014200020930A0426EC30E030930D0420930C0442
:1014300010920F04109210041092110410921204D2
:1014400010929604109295048093970490939804B8
:10145000A0939904B0939A0488E892E0909394043E
:10146000809393041092AD041092B1041092B004D2
:101470001092B20486EA92E09093AC048093AB049D
:10148000E7ECF4E01082148213821582369685E030
:10149000E330F807B9F786E592E090930E05809364
:1014A0000D0582E592E09093100580930F0584E08E
:1014B00080931105809312058AE592E090930C05C4
:1014C00080930B058AE090E09093140580931305B8
:1014D00084EF91E0909316058093150510921905FD
:1014E0001092180510920705109208051092090530
:1014F00010920A05109217051092A2041092A104EE
:101500008AE992E09093A00480939F0487E28093FD
:10151000A30480E18093A80482E08093A904109240
:10152000AA040895789484B5826084BD84B58160EE
:1015300084BD85B5826085BD85B5816085BD80919E
:101540006E00816080936E00109281008091810016
:10155000826080938100809181008160809381000E
:10156000809180008160809380008091B1008460D0
:101570008093B1008091B00081608093B000809131
:1015800091008260809391008091910081608093AE
:101590009100809190008160809390008091A100E3
:1015A00082608093A1008091A10081608093A1005E
:1015B0008091A00081608093A000809121018260D1
:1015C000809321018091210181608093210180918C
:1015D000200181608093200180917A008460809353
:1015E0007A0080917A00826080937A0080917A00FC
:1015F000816080937A0080917A00806880937A007D
:101600001092C100E0910604F091070482E080830B
:10161000E0910204F09103041082E0910404F0913F
:1016200005048FEC808310920E04E0910A04F0917F
:101630000B0486E08083E0910804F0910904808126
:1016400080618083E0910804F091090480818860C2
:101650008083E0910804F091090480818068808390
:10166000E0910804F091090480818F7D80838FEAE6
:1016700092E04CDC10929D0310929C0310929B030D
:1016800010929A039FD988E893E0909399038093EE
:10169000980389E893E090939703809396031092C0
:1016A000A4048091A904823018F098E09093A404D7
:1016B0008093A70462E370E080E090E00E94EC0277
:1016C0006091AA048FE994E03BDA68EE73E080E071
:1016D00090E00E94EC0260E38FE994E013DBCBE43E
:1016E000D6E4CE010197F1F760E38FE994E00ADBDD
:1016F0002197F1F760E38FE994E004DB83E592E062
:101700000197F1F760E28FE994E0FCDA6091A404BC
:10171000606240E08FE994E00BDB84E08093A504F5
:1017200040E06CE08FE994E003DB47DB82E08093EC
:10173000A60440E066E08FE994E0FADA40E062E077
:101740008FE994E0F5DA8BE39FE10197F1F7CAE0C6
:10175000D2E002E012E061E089910E948B0261E038
:10176000F80181918F010E948B02FE01319760E0A8
:1017700080810E941F02F801319761E080810E9400
:101780001F02F2E0C231DF0731F788E08093AA043C
:1017900060E08FE994E0D4D960E080E0DEDA64EBC9
:1017A00072E08FE994E0C3DB61E080E0D6DA64ECBC
:1017B00072E08FE994E0BBDB68EE73E080E090E0DC
:1017C0000E94EC02FADA0E945801809300020E9403
:1017D00044018093010260E080E0BFDA64ED72E0D2
:1017E0008FE994E0A4DB8091000288DB60E084E074
:1017F000B4DA66ED72E08FE994E099DB8091010242
:101800007DDB96DBDD24D394EAE04E2E512C612C57
:10181000712C22242394312CC091AB038C2F0E9475
:101820004C02C73089F51092AB03D09217050E9485
:101830001C030091070510910805209109053091BE
:101840000A05AB01BC01401B510B620B730B80916D
:10185000130590911405B0E0A0E084179507A60742
:10186000B70708F00CC1C0E080911105C81780F4DB
:10187000E0910D05F0910E05EC0FF11D62E0808105
:101880000E948B02CF5FF0CFCF5FC093AB03CDCF71
:10189000C12C80911205C81608F061C00C2D10E013
:1018A000E0910F05F0911005E00FF11F61E08081DC
:1018B0000E948B02E0910F05F0911005E00FF11FDF
:1018C00060E080810E941F0281E090E0A0E0B0E033
:1018D0000C2C04C0880F991FAA1FBB1F0A94D2F7B3
:1018E0005C017C01E094F094912C80911105981694
:1018F000F8F4C92DD0E0E0910D05F0910E05EC0F44
:10190000FD1F80810E94F7012496CC0FDD1FC55575
:10191000DB4F892B41F4888199818A299B299983FE
:1019200088839394E2CF888199818E219F21F7CF7C
:10193000E0910F05F0911005E00FF11F61E080814B
:101940000E941F0280910F0590911005080F191F2A
:1019500060E0F80180810E948B02C3949ACF6BEA09
:10196000E62E64E0F62EE7018F8D98A1892B31F4E5
:101970001C8E2FEF3FEF3E8F2D8F19A2269634E05D
:10198000C73ED30789F710E080911105181708F0BA
:1019900053C000E0812F90E0880F991FFC01ED54A7
:1019A000FB4F5F0120911205021708F043C0F501BB
:1019B00060817181002E02C0769567950A94E2F7E6
:1019C000129F90011124200F311DEBEAF4E080E01A
:1019D000458D568D2417350709F4FCC28F5F369666
:1019E0008A30B1F760FF24C0EBEAF4E090E080E0D9
:1019F000448D411118C0E0910B05F0910C05E20FE8
:101A0000F31F408156E0589FF001599FF00D1124BB
:101A1000E555FB4F448F368F258F10A2178E61E05E
:101A20000E94280305C0019636968A30910501F779
:101A30000F5FB8CF1F5FA8CF10E0F70181A1811120
:101A4000182FF6E0EF0EF11CCE15DF05B1F70E945E
:101A50001C03609307057093080580930905909314
:101A60000A05112361F08091CC04882341F0809114
:101A7000CA049091CB04C091C704019719F0109249
:101A80001705C0E08091A9039091AA0381309105C8
:101A900009F495C008F463C0029709F478C1C3340F
:101AA00009F075C02091F503E091B503A5EBB3E013
:101AB00080E0222309F46BC011969C9111979D93AD
:101AC00091E0980F291380C28093F5039E2F96957D
:101AD000969596958E2F877028E0929FF00111249D
:101AE000EE5EFD4FE80FF11DD08222DA66D90E942A
:101AF0005801809300020E9444018093010260E03B
:101B000080E02BD964ED72E08FE994E010DA8091E7
:101B10000002F4D960E084E020D966ED72E08FE93C
:101B200094E005DA80910102E9D90E941C034B017F
:101B30005C010E941C03681979098A099B09683EA7
:101B400073408105910518F5C091AB038C2F0E945D
:101B50004C02C73009F03AC21092AB03EACFCC2353
:101B6000B1F0C134B9F480910102882381F0D092A0
:101B7000A8031092A7033092AA032092A90360E061
:101B80008AE0EBD866ED72E08FE994E0D0D90E944C
:101B90008A0442CEC23409F082CF809100028823A9
:101BA000B1F31092A803D092A7033092AA03209217
:101BB000A90360E08AE0D1D864ED72E0E5CFCA32D3
:101BC00081F56091A3037091A4038091A503909186
:101BD000A603611571058105910571F41092AA03A0
:101BE0001092A9031092A8031092A70360E08AE064
:101BF000B4D862ED72E0C8CFA301920167D32093FD
:101C0000A3033093A4034093A5035093A6038091AC
:101C1000A20381508093A20361E09FD868ED72E037
:101C2000B3CFC33209F094C04091A3035091A403F1
:101C30006091A5037091A6034115510561057105D9
:101C400009F4A5CF8091A80320910102E8EEF3E00A
:101C5000811108C08091A703882371F120910002AF
:101C6000E4EFF1E02E9FC0012F9F900D1124092E6B
:101C7000000CAA0BBB0B84179507A607B707E0F467
:101C80008093A3039093A403A093A503B093A6030A
:101C900061E080E062D86BED72E08FE994E047D9B3
:101CA0004091A3035091A4036091A5037091A603F2
:101CB0002AE08FE994E09FD84091A3035091A403B8
:101CC0006091A5037091A6032AE086EF93E093D874
:101CD00022E030E03093AA032093A9030C2F0C2EAE
:101CE000000C110B005311090A30110508F0D7CE72
:101CF0002091A3033091A4034091A5035091A60322
:101D00000115110549F5211531054105510509F464
:101D1000C6CEAAE0B0E004D36093A3037093A403FB
:101D20008093A5039093A60361E08091A20315D848
:101D300070E060E08FE994E0A9D86FED72E08FE980
:101D400094E0F5D88091A2038F5F8093A203A7CE81
:101D5000CC2309F41CCFC2CFAAE0B0E0E1D2480105
:101D6000012E000CAA08BB08860E971EA81EB91EDD
:101D70008092A3039092A403A092A503B092A6031D
:101D800061E08091A2030E94AD06B801D3CF80919B
:101D9000A803882309F45BC06091A3037091A40396
:101DA0008091A5039091A6039B01220F331F3093CE
:101DB000A1032093A003BCD120E030E04AE754E423
:101DC0001ED10AD184D170939F0360939E0361E07A
:101DD00089E00E94AD0661EE72E08FE994E0A7D839
:101DE0004091A0035091A10370E060E02AE08FE9E8
:101DF00094E001D860E08BE00E94AD0660919E0304
:101E000070919F038FE994E041D8D0E080919E03C8
:101E100090919F03D81719060CF09DC08091A803DC
:101E200002E112E0E12CF12C882309F471C0F801E1
:101E300090E080E0682F2191222301F1E39430E2C9
:101E4000E3124FC010924D0263E087E020C0809102
:101E5000A703882309F4BBCF6091A3037091A40367
:101E60008091A5039091A6037093A1036093A003B2
:101E70005FD120E030E04AEF53E4A2CF882351F154
:101E8000800F911FFC013197108261508F2D0E94AD
:101E90003501F394085F1F4F58E0F512C8CF48D8BA
:101EA0000E941C034B015C010E941C036819790904
:101EB0008A099B09683E73408105910508F049C075
:101EC0001091AB03812F0E944C021730F1F5109254
:101ED000AB03EACFF8013597108263E08FEF8F0DE7
:101EE000D6CF01968430910509F0A4CFD2CF8430AB
:101EF00001F1800F911FFC013197108261508F2DED
:101F00000E943501F394085F1F4F38E0F31639F251
:101F1000F801349684E090E0682F2191222339F370
:101F2000E39420E2E2120CC01092510267E087E0D5
:101F3000E7CFF8013197108267E08FEF8F0DE0CF88
:101F400001968830910541F7DDCF1F5F1093AB03F9
:101F5000ABCFDF5F5BCF0E94DD060E94580180930C
:101F600000020E9444018093010260E080E00E9430
:101F7000AD0664ED72E08FE994E00E9497078091CE
:101F800000020E947E0760E084E00E94AD0666EDDC
:101F900072E08FE994E00E949707809101020E940D
:101FA0007E071092A3031092A4031092A50310922F
:101FB000A6031092A7031092A8031092A2031092F6
:101FC000AA031092A9036BCD892F76CDCF5FC09362
:101FD000AB03AFCD617024CD5BD180F09F3740F46F
:101FE00091110EF46DC160E070E080E89FE3089508
:101FF00026F01B16611D711D811DDDC0F7C00CD0C0
:1020000014C10CD140F003D130F021F45F3F19F03E
:10201000CCC0511155C1F8C019D198F39923C9F317
:102020005523B1F3951B550BBB27AA2762177307DE
:10203000840738F09F5F5F4F220F331F441FAA1F92
:10204000A9F333D00E2E3AF0E0E830D09150504052
:10205000E695001CCAF729D0FE2F27D0660F771F00
:10206000881FBB1F261737074807AB07B0E809F0E2
:10207000BB0B802DBF01FF2793585F4F2AF09E3F77
:10208000510568F092C01CC15F3FECF3983EDCF351
:10209000869577956795B795F7959F5FC9F7880FF0
:1020A000911D9695879597F90895E1E0660F771F42
:1020B000881FBB1F621773078407BA0720F0621BD3
:1020C000730B840BBA0BEE1F88F7E095089504D0CC
:1020D0006894B111F5C00895C1D088F09F5790F071
:1020E000B92F9927B751A0F0D1F0660F771F881F3D
:1020F000991F1AF0BA95C9F712C0B13081F0DFD03C
:10210000B1E00895DCC0672F782F8827B85F39F0D9
:10211000B93FCCF3869577956795B395D9F73EF49B
:1021200090958095709561957F4F8F4F9F4F089543
:10213000E89409C097FB3EF4909580957095619561
:102140007F4F8F4F9F4F9923A9F0F92F96E9BB2717
:102150009395F695879577956795B795F111F8CF93
:10216000FAF4BB0F11F460FF1BC06F5F7F4F8F4FFE
:102170009F4F16C0882311F096E911C0772321F0F4
:102180009EE8872F762F05C0662371F096E8862F8C
:1021900070E060E02AF09A95660F771F881FDAF7E3
:1021A000880F9695879597F9089597F99F6780E826
:1021B00070E060E00895882371F4772321F098504F
:1021C000872B762F07C0662311F499270DC09051F5
:1021D000862B70E060E02AF09A95660F771F881FC3
:1021E000DAF7880F9695879597F908959F3F31F014
:1021F000915020F4879577956795B795880F911D35
:102200009695879597F908959FEF80EC089500249F
:102210000A941616170618060906089500240A944B
:1022200012161306140605060895092E0394000CD1
:1022300011F4882352F0BB0F40F4BF2B11F460FF60
:1022400004C06F5F7F4F8F4F9F4F089557FD905889
:10225000440F551F59F05F3F71F04795880F97FB6A
:10226000991F61F09F3F79F0879508951216130624
:102270001406551FF2CF4695F1DF08C01616170653
:102280001806991FF1CF8695710561050894089588
:10229000E5DFA0F0BEE7B91788F4BB279F3860F4EC
:1022A0001616B11D672F782F8827985FF7CF869570
:1022B00077956795B11D93959639C8F30895E8947D
:1022C000BB2766277727CB0197F90895A1E21A2E3D
:1022D000AA1BBB1BFD010DC0AA1FBB1FEE1FFF1FCA
:1022E000A217B307E407F50720F0A21BB30BE40B1A
:1022F000F50B661F771F881F991F1A9469F7609561
:102300007095809590959B01AC01BD01CF0108951A
:10231000EE0FFF1F881F8BBF0790F691E02D1994D9
:1023200009D0A59F900DB49F900DA49F800D911D85
:1023300011240895A29FB001B39FC001A39F700D07
:10234000811D1124911DB29F700D811D1124911DBD
:062350000895F894FFCF90
:1023560020201E1F2021222324251D1C1B1A19188C
:10236600171601010101010101010101010101012C
:102376000101010101010101010101010101010147
:102386000101010101010101010101010101010137
:102396000101010101010101010101010101010127
:1023A60001010504030209080706373839413435A7
:1023B6003642313233432A302344000040001400B1
:1023C6005400000000001F048A03B7036B04E803EF
:1023D600C603DA0300000000720546057F061C05E9
:1023E6003F052C051D0500000000E7068A037F0651
:1023F600BA04000000008003830386030D0A004828
:102406006F6C610020205265636F6C656363696F52
:102416006E202000202020204261737572612020EA
:1024260020202000520049006B20006D6178006B6F
:04243600002400007E
:00000001FF
